{
  "contractName": "ExpenseManager",
  "abi": [
    {
      "anonymous": false,
      "inputs": [
        {
          "indexed": true,
          "internalType": "uint256",
          "name": "expenseId",
          "type": "uint256"
        },
        {
          "indexed": false,
          "internalType": "string",
          "name": "description",
          "type": "string"
        },
        {
          "indexed": false,
          "internalType": "uint256",
          "name": "amount",
          "type": "uint256"
        },
        {
          "indexed": true,
          "internalType": "address",
          "name": "payer",
          "type": "address"
        },
        {
          "indexed": false,
          "internalType": "address[]",
          "name": "participants",
          "type": "address[]"
        },
        {
          "indexed": false,
          "internalType": "uint8",
          "name": "category",
          "type": "uint8"
        }
      ],
      "name": "ExpenseAdded",
      "type": "event"
    },
    {
      "anonymous": false,
      "inputs": [
        {
          "indexed": true,
          "internalType": "uint256",
          "name": "groupId",
          "type": "uint256"
        },
        {
          "indexed": false,
          "internalType": "string",
          "name": "name",
          "type": "string"
        },
        {
          "indexed": true,
          "internalType": "address",
          "name": "admin",
          "type": "address"
        }
      ],
      "name": "GroupCreated",
      "type": "event"
    },
    {
      "anonymous": false,
      "inputs": [
        {
          "indexed": true,
          "internalType": "uint256",
          "name": "groupId",
          "type": "uint256"
        },
        {
          "indexed": true,
          "internalType": "address",
          "name": "member",
          "type": "address"
        }
      ],
      "name": "MemberAdded",
      "type": "event"
    },
    {
      "inputs": [
        {
          "internalType": "uint256",
          "name": "",
          "type": "uint256"
        },
        {
          "internalType": "address",
          "name": "",
          "type": "address"
        }
      ],
      "name": "balances",
      "outputs": [
        {
          "internalType": "int256",
          "name": "",
          "type": "int256"
        }
      ],
      "stateMutability": "view",
      "type": "function",
      "constant": true
    },
    {
      "inputs": [],
      "name": "expenseCount",
      "outputs": [
        {
          "internalType": "uint256",
          "name": "",
          "type": "uint256"
        }
      ],
      "stateMutability": "view",
      "type": "function",
      "constant": true
    },
    {
      "inputs": [
        {
          "internalType": "uint256",
          "name": "",
          "type": "uint256"
        }
      ],
      "name": "expenses",
      "outputs": [
        {
          "internalType": "uint256",
          "name": "id",
          "type": "uint256"
        },
        {
          "internalType": "string",
          "name": "description",
          "type": "string"
        },
        {
          "internalType": "uint256",
          "name": "amount",
          "type": "uint256"
        },
        {
          "internalType": "address",
          "name": "payer",
          "type": "address"
        },
        {
          "internalType": "bool",
          "name": "settled",
          "type": "bool"
        },
        {
          "internalType": "uint8",
          "name": "category",
          "type": "uint8"
        }
      ],
      "stateMutability": "view",
      "type": "function",
      "constant": true
    },
    {
      "inputs": [],
      "name": "groupCount",
      "outputs": [
        {
          "internalType": "uint256",
          "name": "",
          "type": "uint256"
        }
      ],
      "stateMutability": "view",
      "type": "function",
      "constant": true
    },
    {
      "inputs": [
        {
          "internalType": "uint256",
          "name": "",
          "type": "uint256"
        }
      ],
      "name": "groups",
      "outputs": [
        {
          "internalType": "uint256",
          "name": "id",
          "type": "uint256"
        },
        {
          "internalType": "string",
          "name": "name",
          "type": "string"
        },
        {
          "internalType": "address",
          "name": "admin",
          "type": "address"
        }
      ],
      "stateMutability": "view",
      "type": "function",
      "constant": true
    },
    {
      "inputs": [
        {
          "internalType": "string",
          "name": "_name",
          "type": "string"
        }
      ],
      "name": "createGroup",
      "outputs": [
        {
          "internalType": "uint256",
          "name": "",
          "type": "uint256"
        }
      ],
      "stateMutability": "nonpayable",
      "type": "function"
    },
    {
      "inputs": [
        {
          "internalType": "uint256",
          "name": "_groupId",
          "type": "uint256"
        },
        {
          "internalType": "address",
          "name": "_member",
          "type": "address"
        }
      ],
      "name": "addMember",
      "outputs": [],
      "stateMutability": "nonpayable",
      "type": "function"
    },
    {
      "inputs": [
        {
          "internalType": "uint256",
          "name": "_groupId",
          "type": "uint256"
        },
        {
          "internalType": "string",
          "name": "_description",
          "type": "string"
        },
        {
          "internalType": "uint256",
          "name": "_amount",
          "type": "uint256"
        },
        {
          "internalType": "address[]",
          "name": "_participants",
          "type": "address[]"
        },
        {
          "internalType": "uint8",
          "name": "_category",
          "type": "uint8"
        }
      ],
      "name": "addExpense",
      "outputs": [],
      "stateMutability": "nonpayable",
      "type": "function"
    },
    {
      "inputs": [
        {
          "internalType": "uint256",
          "name": "_groupId",
          "type": "uint256"
        }
      ],
      "name": "getMembers",
      "outputs": [
        {
          "internalType": "address[]",
          "name": "",
          "type": "address[]"
        }
      ],
      "stateMutability": "view",
      "type": "function",
      "constant": true
    },
    {
      "inputs": [
        {
          "internalType": "uint256",
          "name": "_groupId",
          "type": "uint256"
        },
        {
          "internalType": "address",
          "name": "_user",
          "type": "address"
        }
      ],
      "name": "getBalance",
      "outputs": [
        {
          "internalType": "int256",
          "name": "",
          "type": "int256"
        }
      ],
      "stateMutability": "view",
      "type": "function",
      "constant": true
    },
    {
      "inputs": [
        {
          "internalType": "uint256",
          "name": "_groupId",
          "type": "uint256"
        }
      ],
      "name": "getGroupExpenses",
      "outputs": [
        {
          "internalType": "uint256[]",
          "name": "",
          "type": "uint256[]"
        }
      ],
      "stateMutability": "view",
      "type": "function",
      "constant": true
    }
  ],
  "bytecode": "0x6080806040523461001657610d83908161001c8239f35b600080fdfe608080604052600436101561001357600080fd5b60003560e01c9081631f32033114610aeb57508063500b136f14610a4257806352e7df5d14610a2457806374d0a676146109205780638f23b3261461090257806396324bd41461089f578063af4afe0a14610819578063b0a79459146107d1578063c477ecab14610716578063dc2ddcae1461050b5763f643729c1461009857600080fd5b346102cb5760a03660031901126102cb5767ffffffffffffffff6024358181116102cb576100ca903690600401610c86565b919081606435116102cb573660236064350112156102cb578160643560040135116102cb573660246064356004013560051b6064350101116102cb5760ff60843516608435036102cb57604435156104c657606435600401351561048157610133600154610cb4565b918260015582600052600360205260406000209083825584116103ab5761015d6001820154610b44565b601f811161043a575b5060009084601f81116001146103cc576003926000916103c1575b508560011b9060001987851b1c19161760018201555b604435600282015501805460ff60a81b60843560a81b169061ffff60a01b1933169069ffffffffffffffffffff60b01b1617179055600435600052600260205260046040600020018054600160401b8110156103ab576101fc91600182018155610cc3565b81549060031b9084821b91600019901b191617905560005b6064356004013581106102d0575061023a60209160405194608086526080860191610d2c565b604435828501528381036040850152606435600401358152019160246064350160005b6064356004013581106102a15750507fe2f86de301cca40716e8f75d1727dfecb6ae87852b30e3f5a5b7398ea840b9379060ff6084351660608201528033940390a3005b909384356001600160a01b03811691908290036102cb57602081600193829352019501910161025d565b600080fd5b6024600582901b6064350101356001600160a01b038116908190036102cb57338103610300575b50600101610214565b6004803560009081526020828152604080832094835293905291822080549092909160643501356044350490811280159183038381139290921691831316176103955760046064358101356044350491829003909255813560009081526020928352604080822033835290935291822080549093928183019291128015918312918216911516176103955760019255906102f7565b634e487b7160e01b600052601160045260246000fd5b634e487b7160e01b600052604160045260246000fd5b905083013538610181565b506001810160005260206000206000925b601f1987168410610422576003935086601f1981161061040a575b5050600185811b016001820155610197565b84013560001987851b60f8161c1916905538806103f8565b848101358255602093840193600190920191016103dd565b600182016000526020600020601f860160051c81016020871061047a575b601f830160051c8201811061046e575050610166565b60008155600101610458565b5080610458565b60405162461bcd60e51b815260206004820152601d60248201527f4e656564206174206c65617374206f6e65207061727469636970616e740000006044820152606490fd5b60405162461bcd60e51b815260206004820152601d60248201527f416d6f756e74206d7573742062652067726561746572207468616e20300000006044820152606490fd5b346102cb576020806003193601126102cb5767ffffffffffffffff6004358181116102cb5761053e903690600401610c86565b909161054b600054610cb4565b9283600055836000526002855260406000208481556001928382019085116103ab5784869461057a8354610b44565b601f81116106bb575b506000601f83116001146106275792826105fd9361061196937f18c62fe73d1b8ec45d443cf56b0c4966349cbb70ab036ba3ebfb065932ad17b0989660009361061c575b501b906000198a60031b1c19161790555b60028101336bffffffffffffffffffffffff60a01b8254161790556003339101610cf1565b604051918291888352339689840191610d2c565b0390a3604051908152f35b87013592508d6105c7565b60008481528a81209293508890601f198216905b8c8282106106a1575050927f18c62fe73d1b8ec45d443cf56b0c4966349cbb70ab036ba3ebfb065932ad17b09795926105fd9592610611989510610687575b505088811b0190556105d8565b86013560001960038c901b60f8161c191690558b8061067a565b848a013586558c9a5094860194938401938b93500161063b565b915091809394955060005287600020601f870160051c81019189881061070c575b91889695949391601f89940160051c01905b8181106106fb5750610583565b6000815589975088935082016106ee565b90915081906106dc565b346102cb576020806003193601126102cb5760043560005260028152600360406000200160405190818382549182815201908192600052846000209060005b868282106107b457868661076b82880383610b7e565b604051928392818401908285525180915260408401929160005b82811061079457505050500390f35b83516001600160a01b031685528695509381019392810192600101610785565b83546001600160a01b031685529093019260019283019201610755565b346102cb5760403660031901126102cb576107ea610b2e565b600435600052600460205260406000209060018060a01b03166000526020526020604060002054604051908152f35b346102cb5760203660031901126102cb5760043560005260036020526040600020805461084860018301610ba0565b9160ff60036002830154920154610871604051958695865260c0602087015260c0860190610c46565b92604085015260018060a01b0381166060850152818160a01c161515608085015260a81c1660a08301520390f35b346102cb5760203660031901126102cb576004356000526002602052604060002080546108ce60018301610ba0565b91600260018060a01b03910154166108f86040519384938452606060208501526060840190610c46565b9060408301520390f35b346102cb5760003660031901126102cb576020600054604051908152f35b346102cb5760403660031901126102cb5760043561093c610b2e565b9080600052600260205260018060a01b03806002604060002001541633036109df5782169182156109a857610981908260005260026020526003604060002001610cf1565b7ff328ac0f8bcae00933fe87ba0aa2d0d505c1df94bc9c1aa05b8441c28b74032c600080a3005b60405162461bcd60e51b815260206004820152600f60248201526e496e76616c6964206164647265737360881b6044820152606490fd5b60405162461bcd60e51b815260206004820152601a60248201527f4f6e6c792061646d696e2063616e20616464206d656d626572730000000000006044820152606490fd5b346102cb5760003660031901126102cb576020600154604051908152f35b346102cb576020806003193601126102cb5760043560005260028152600460406000200160405190818382549182815201908192600052846000209060005b86828210610ad7578686610a9782880383610b7e565b604051928392818401908285525180915260408401929160005b828110610ac057505050500390f35b835185528695509381019392810192600101610ab1565b835485529093019260019283019201610a81565b346102cb5760403660031901126102cb57602090610b07610b2e565b6004356000526004835260406000209060018060a01b031660005282526040600020548152f35b602435906001600160a01b03821682036102cb57565b90600182811c92168015610b74575b6020831014610b5e57565b634e487b7160e01b600052602260045260246000fd5b91607f1691610b53565b90601f8019910116810190811067ffffffffffffffff8211176103ab57604052565b9060405191826000825492610bb484610b44565b908184526001948581169081600014610c235750600114610be0575b5050610bde92500383610b7e565b565b9093915060005260209081600020936000915b818310610c0b575050610bde93508201013880610bd0565b85548884018501529485019487945091830191610bf3565b915050610bde94506020925060ff191682840152151560051b8201013880610bd0565b919082519283825260005b848110610c72575050826000602080949584010152601f8019910116010190565b602081830181015184830182015201610c51565b9181601f840112156102cb5782359167ffffffffffffffff83116102cb57602083818601950101116102cb57565b60001981146103955760010190565b8054821015610cdb5760005260206000200190600090565b634e487b7160e01b600052603260045260246000fd5b8054600160401b8110156103ab57610d0e91600182018155610cc3565b819291549060031b9160018060a01b03809116831b921b1916179055565b908060209392818452848401376000828201840152601f01601f191601019056fea264697066735822122056631bd18472e742e368e6ece962a302c172a8a9dc28cd56228287340c7d924364736f6c63430008130033",
  "immutableReferences": {},
  "source": "// SPDX-License-Identifier: MIT\r\npragma solidity ^0.8.19;\r\n\r\ncontract ExpenseManager {\r\n\r\n    struct Expense {\r\n        uint256 id;\r\n        string description;\r\n        uint256 amount;\r\n        address payer;\r\n        bool settled;\r\n        uint8 category;\r\n    }\r\n\r\n    struct Group {\r\n        uint256 id;\r\n        string name;\r\n        address admin;\r\n        address[] members;\r\n        uint256[] expenseIds;\r\n    }\r\n\r\n    uint256 public groupCount;\r\n    uint256 public expenseCount;\r\n\r\n    mapping(uint256 => Group) public groups;\r\n    mapping(uint256 => Expense) public expenses;\r\n    mapping(uint256 => mapping(address => int256)) public balances;\r\n\r\n    event GroupCreated(uint256 indexed groupId, string name, address indexed admin);\r\n    event MemberAdded(uint256 indexed groupId, address indexed member);\r\n    event ExpenseAdded(uint256 indexed expenseId, string description, uint256 amount, address indexed payer, address[] participants, uint8 category);\r\n\r\n    function createGroup(string calldata _name) external returns (uint256) {\r\n        uint256 newGroupId = ++groupCount;\r\n        Group storage g = groups[newGroupId];\r\n        g.id = newGroupId;\r\n        g.name = _name;\r\n        g.admin = msg.sender;\r\n        g.members.push(msg.sender);\r\n\r\n        emit GroupCreated(newGroupId, _name, msg.sender);\r\n        return newGroupId;\r\n    }\r\n\r\n    function addMember(uint256 _groupId, address _member) external {\r\n        require(groups[_groupId].admin == msg.sender, \"Only admin can add members\");\r\n        require(_member != address(0), \"Invalid address\");\r\n        groups[_groupId].members.push(_member);\r\n        emit MemberAdded(_groupId, _member);\r\n    }\r\n\r\n    function addExpense(\r\n        uint256 _groupId,\r\n        string calldata _description,\r\n        uint256 _amount,\r\n        address[] calldata _participants,\r\n        uint8 _category\r\n    ) external {\r\n        require(_amount > 0, \"Amount must be greater than 0\");\r\n        uint256 pCount = _participants.length;\r\n        require(pCount > 0, \"Need at least one participant\");\r\n\r\n        uint256 newExpenseId = ++expenseCount;\r\n        Expense storage e = expenses[newExpenseId];\r\n        e.id = newExpenseId;\r\n        e.description = _description;\r\n        e.amount = _amount;\r\n        e.payer = msg.sender;\r\n        e.settled = false;\r\n        e.category = _category;\r\n\r\n        groups[_groupId].expenseIds.push(newExpenseId);\r\n\r\n        uint256 share = _amount / pCount;\r\n        int256 iShare = int256(share);\r\n\r\n        for (uint256 i = 0; i < pCount;) {\r\n            address participant = _participants[i];\r\n            if (participant != msg.sender) {\r\n                balances[_groupId][participant] -= iShare;\r\n                balances[_groupId][msg.sender] += iShare;\r\n            }\r\n            unchecked { ++i; }\r\n        }\r\n\r\n        emit ExpenseAdded(newExpenseId, _description, _amount, msg.sender, _participants, _category);\r\n    }\r\n\r\n    function getMembers(uint256 _groupId) external view returns (address[] memory) {\r\n        return groups[_groupId].members;\r\n    }\r\n\r\n    function getBalance(uint256 _groupId, address _user) external view returns (int256) {\r\n        return balances[_groupId][_user];\r\n    }\r\n\r\n    function getGroupExpenses(uint256 _groupId) external view returns (uint256[] memory) {\r\n        return groups[_groupId].expenseIds;\r\n    }\r\n}\r\n",
  "sourcePath": "D:\\Bhumik\\All Projects\\College projects\\chain_split-cbd\\contracts\\ExpenseManager.sol",
  "compiler": {
    "name": "solc",
    "version": "0.8.19+commit.7dd6d404.Emscripten.clang"
  },
  "schemaVersion": "3.4.16",
  "updatedAt": "2026-04-18T14:46:49.321Z",
  "networkType": "ethereum",
  "devdoc": {
    "kind": "dev",
    "methods": {},
    "version": 1
  },
  "userdoc": {
    "kind": "user",
    "methods": {},
    "version": 1
  }
}