{
  "contractName": "ExpenseManager",
  "abi": [
    {
      "anonymous": false,
      "inputs": [
        {
          "indexed": false,
          "internalType": "uint256",
          "name": "expenseId",
          "type": "uint256"
        },
        {
          "indexed": false,
          "internalType": "string",
          "name": "description",
          "type": "string"
        },
        {
          "indexed": false,
          "internalType": "uint256",
          "name": "amount",
          "type": "uint256"
        },
        {
          "indexed": false,
          "internalType": "address",
          "name": "payer",
          "type": "address"
        }
      ],
      "name": "ExpenseAdded",
      "type": "event"
    },
    {
      "anonymous": false,
      "inputs": [
        {
          "indexed": false,
          "internalType": "uint256",
          "name": "groupId",
          "type": "uint256"
        },
        {
          "indexed": false,
          "internalType": "string",
          "name": "name",
          "type": "string"
        },
        {
          "indexed": false,
          "internalType": "address",
          "name": "admin",
          "type": "address"
        }
      ],
      "name": "GroupCreated",
      "type": "event"
    },
    {
      "anonymous": false,
      "inputs": [
        {
          "indexed": false,
          "internalType": "uint256",
          "name": "groupId",
          "type": "uint256"
        },
        {
          "indexed": false,
          "internalType": "address",
          "name": "member",
          "type": "address"
        }
      ],
      "name": "MemberAdded",
      "type": "event"
    },
    {
      "inputs": [
        {
          "internalType": "uint256",
          "name": "",
          "type": "uint256"
        },
        {
          "internalType": "address",
          "name": "",
          "type": "address"
        }
      ],
      "name": "balances",
      "outputs": [
        {
          "internalType": "int256",
          "name": "",
          "type": "int256"
        }
      ],
      "stateMutability": "view",
      "type": "function",
      "constant": true
    },
    {
      "inputs": [],
      "name": "expenseCount",
      "outputs": [
        {
          "internalType": "uint256",
          "name": "",
          "type": "uint256"
        }
      ],
      "stateMutability": "view",
      "type": "function",
      "constant": true
    },
    {
      "inputs": [
        {
          "internalType": "uint256",
          "name": "",
          "type": "uint256"
        }
      ],
      "name": "expenses",
      "outputs": [
        {
          "internalType": "uint256",
          "name": "id",
          "type": "uint256"
        },
        {
          "internalType": "string",
          "name": "description",
          "type": "string"
        },
        {
          "internalType": "uint256",
          "name": "amount",
          "type": "uint256"
        },
        {
          "internalType": "address",
          "name": "payer",
          "type": "address"
        },
        {
          "internalType": "bool",
          "name": "settled",
          "type": "bool"
        }
      ],
      "stateMutability": "view",
      "type": "function",
      "constant": true
    },
    {
      "inputs": [],
      "name": "groupCount",
      "outputs": [
        {
          "internalType": "uint256",
          "name": "",
          "type": "uint256"
        }
      ],
      "stateMutability": "view",
      "type": "function",
      "constant": true
    },
    {
      "inputs": [
        {
          "internalType": "uint256",
          "name": "",
          "type": "uint256"
        }
      ],
      "name": "groups",
      "outputs": [
        {
          "internalType": "uint256",
          "name": "id",
          "type": "uint256"
        },
        {
          "internalType": "string",
          "name": "name",
          "type": "string"
        },
        {
          "internalType": "address",
          "name": "admin",
          "type": "address"
        }
      ],
      "stateMutability": "view",
      "type": "function",
      "constant": true
    },
    {
      "inputs": [
        {
          "internalType": "string",
          "name": "_name",
          "type": "string"
        }
      ],
      "name": "createGroup",
      "outputs": [
        {
          "internalType": "uint256",
          "name": "",
          "type": "uint256"
        }
      ],
      "stateMutability": "nonpayable",
      "type": "function"
    },
    {
      "inputs": [
        {
          "internalType": "uint256",
          "name": "_groupId",
          "type": "uint256"
        },
        {
          "internalType": "address",
          "name": "_member",
          "type": "address"
        }
      ],
      "name": "addMember",
      "outputs": [],
      "stateMutability": "nonpayable",
      "type": "function"
    },
    {
      "inputs": [
        {
          "internalType": "uint256",
          "name": "_groupId",
          "type": "uint256"
        },
        {
          "internalType": "string",
          "name": "_description",
          "type": "string"
        },
        {
          "internalType": "uint256",
          "name": "_amount",
          "type": "uint256"
        },
        {
          "internalType": "address[]",
          "name": "_participants",
          "type": "address[]"
        }
      ],
      "name": "addExpense",
      "outputs": [],
      "stateMutability": "nonpayable",
      "type": "function"
    },
    {
      "inputs": [
        {
          "internalType": "uint256",
          "name": "_groupId",
          "type": "uint256"
        }
      ],
      "name": "getMembers",
      "outputs": [
        {
          "internalType": "address[]",
          "name": "",
          "type": "address[]"
        }
      ],
      "stateMutability": "view",
      "type": "function",
      "constant": true
    },
    {
      "inputs": [
        {
          "internalType": "uint256",
          "name": "_groupId",
          "type": "uint256"
        },
        {
          "internalType": "address",
          "name": "_user",
          "type": "address"
        }
      ],
      "name": "getBalance",
      "outputs": [
        {
          "internalType": "int256",
          "name": "",
          "type": "int256"
        }
      ],
      "stateMutability": "view",
      "type": "function",
      "constant": true
    },
    {
      "inputs": [
        {
          "internalType": "uint256",
          "name": "_groupId",
          "type": "uint256"
        }
      ],
      "name": "getGroupExpenses",
      "outputs": [
        {
          "internalType": "uint256[]",
          "name": "",
          "type": "uint256[]"
        }
      ],
      "stateMutability": "view",
      "type": "function",
      "constant": true
    }
  ],
  "bytecode": "0x608060405234801561001057600080fd5b50611af3806100206000396000f3fe608060405234801561001057600080fd5b50600436106100a95760003560e01c80638f23b326116100715780638f23b3261461016457806396324bd414610182578063af4afe0a146101b4578063b0a79459146101e8578063c477ecab14610218578063dc2ddcae14610248576100a9565b80631f320331146100ae5780633086443d146100de578063500b136f146100fa57806352e7df5d1461012a57806374d0a67614610148575b600080fd5b6100c860048036038101906100c39190610d6b565b610278565b6040516100d59190610dc4565b60405180910390f35b6100f860048036038101906100f39190610fed565b61029d565b005b610114600480360381019061010f919061108c565b6105e1565b6040516101219190611177565b60405180910390f35b61013261064f565b60405161013f91906111a8565b60405180910390f35b610162600480360381019061015d9190610d6b565b610655565b005b61016c61081c565b60405161017991906111a8565b60405180910390f35b61019c6004803603810190610197919061108c565b610822565b6040516101ab93929190611251565b60405180910390f35b6101ce60048036038101906101c9919061108c565b6108f4565b6040516101df9594939291906112aa565b60405180910390f35b61020260048036038101906101fd9190610d6b565b6109df565b60405161020f9190610dc4565b60405180910390f35b610232600480360381019061022d919061108c565b610a3a565b60405161023f91906113c2565b60405180910390f35b610262600480360381019061025d91906113e4565b610ade565b60405161026f91906111a8565b60405180910390f35b6004602052816000526040600020602052806000526040600020600091509150505481565b600082116102e0576040517f08c379a00000000000000000000000000000000000000000000000000000000081526004016102d790611479565b60405180910390fd5b6000815111610324576040517f08c379a000000000000000000000000000000000000000000000000000000000815260040161031b906114e5565b60405180910390fd5b6001600081548092919061033790611534565b9190505550600060036000600154815260200190815260200160002090506001548160000181905550838160010190816103719190611788565b50828160020181905550338160030160006101000a81548173ffffffffffffffffffffffffffffffffffffffff021916908373ffffffffffffffffffffffffffffffffffffffff160217905550818160040190805190602001906103d6929190610c1c565b5060008160050160006101000a81548160ff02191690831515021790555060026000868152602001908152602001600020600401600154908060018154018082558091505060019003906000526020600020016000909190919091505560008251846104429190611889565b905060005b8351811015610599573373ffffffffffffffffffffffffffffffffffffffff1684828151811061047a576104796118ba565b5b602002602001015173ffffffffffffffffffffffffffffffffffffffff161461058657816004600089815260200190815260200160002060008684815181106104c6576104c56118ba565b5b602002602001015173ffffffffffffffffffffffffffffffffffffffff1673ffffffffffffffffffffffffffffffffffffffff168152602001908152602001600020600082825461051791906118e9565b92505081905550816004600089815260200190815260200160002060003373ffffffffffffffffffffffffffffffffffffffff1673ffffffffffffffffffffffffffffffffffffffff168152602001908152602001600020600082825461057e919061192c565b925050819055505b808061059190611534565b915050610447565b507f8554d4a7658569a74133abedf43c48e41491964da8c9338552856d64dc6f7f036001548686336040516105d19493929190611970565b60405180910390a1505050505050565b60606002600083815260200190815260200160002060040180548060200260200160405190810160405280929190818152602001828054801561064357602002820191906000526020600020905b81548152602001906001019080831161062f575b50505050509050919050565b60015481565b3373ffffffffffffffffffffffffffffffffffffffff166002600084815260200190815260200160002060020160009054906101000a900473ffffffffffffffffffffffffffffffffffffffff1673ffffffffffffffffffffffffffffffffffffffff16146106f9576040517f08c379a00000000000000000000000000000000000000000000000000000000081526004016106f090611a08565b60405180910390fd5b600073ffffffffffffffffffffffffffffffffffffffff168173ffffffffffffffffffffffffffffffffffffffff1603610768576040517f08c379a000000000000000000000000000000000000000000000000000000000815260040161075f90611a74565b60405180910390fd5b60026000838152602001908152602001600020600301819080600181540180825580915050600190039060005260206000200160009091909190916101000a81548173ffffffffffffffffffffffffffffffffffffffff021916908373ffffffffffffffffffffffffffffffffffffffff1602179055507ff328ac0f8bcae00933fe87ba0aa2d0d505c1df94bc9c1aa05b8441c28b74032c8282604051610810929190611a94565b60405180910390a15050565b60005481565b600260205280600052604060002060009150905080600001549080600101805461084b906115ab565b80601f0160208091040260200160405190810160405280929190818152602001828054610877906115ab565b80156108c45780601f10610899576101008083540402835291602001916108c4565b820191906000526020600020905b8154815290600101906020018083116108a757829003601f168201915b5050505050908060020160009054906101000a900473ffffffffffffffffffffffffffffffffffffffff16905083565b600360205280600052604060002060009150905080600001549080600101805461091d906115ab565b80601f0160208091040260200160405190810160405280929190818152602001828054610949906115ab565b80156109965780601f1061096b57610100808354040283529160200191610996565b820191906000526020600020905b81548152906001019060200180831161097957829003601f168201915b5050505050908060020154908060030160009054906101000a900473ffffffffffffffffffffffffffffffffffffffff16908060050160009054906101000a900460ff16905085565b60006004600084815260200190815260200160002060008373ffffffffffffffffffffffffffffffffffffffff1673ffffffffffffffffffffffffffffffffffffffff16815260200190815260200160002054905092915050565b606060026000838152602001908152602001600020600301805480602002602001604051908101604052809291908181526020018280548015610ad257602002820191906000526020600020905b8160009054906101000a900473ffffffffffffffffffffffffffffffffffffffff1673ffffffffffffffffffffffffffffffffffffffff1681526020019060010190808311610a88575b50505050509050919050565b6000806000815480929190610af290611534565b9190505550600060026000805481526020019081526020016000209050600054816000018190555082816001019081610b2b9190611788565b50338160020160006101000a81548173ffffffffffffffffffffffffffffffffffffffff021916908373ffffffffffffffffffffffffffffffffffffffff16021790555080600301339080600181540180825580915050600190039060005260206000200160009091909190916101000a81548173ffffffffffffffffffffffffffffffffffffffff021916908373ffffffffffffffffffffffffffffffffffffffff1602179055507f18c62fe73d1b8ec45d443cf56b0c4966349cbb70ab036ba3ebfb065932ad17b06000548433604051610c0993929190611251565b60405180910390a1600054915050919050565b828054828255906000526020600020908101928215610c95579160200282015b82811115610c945782518260006101000a81548173ffffffffffffffffffffffffffffffffffffffff021916908373ffffffffffffffffffffffffffffffffffffffff16021790555091602001919060010190610c3c565b5b509050610ca29190610ca6565b5090565b5b80821115610cbf576000816000905550600101610ca7565b5090565b6000604051905090565b600080fd5b600080fd5b6000819050919050565b610cea81610cd7565b8114610cf557600080fd5b50565b600081359050610d0781610ce1565b92915050565b600073ffffffffffffffffffffffffffffffffffffffff82169050919050565b6000610d3882610d0d565b9050919050565b610d4881610d2d565b8114610d5357600080fd5b50565b600081359050610d6581610d3f565b92915050565b60008060408385031215610d8257610d81610ccd565b5b6000610d9085828601610cf8565b9250506020610da185828601610d56565b9150509250929050565b6000819050919050565b610dbe81610dab565b82525050565b6000602082019050610dd96000830184610db5565b92915050565b600080fd5b600080fd5b6000601f19601f8301169050919050565b7f4e487b7100000000000000000000000000000000000000000000000000000000600052604160045260246000fd5b610e3282610de9565b810181811067ffffffffffffffff82111715610e5157610e50610dfa565b5b80604052505050565b6000610e64610cc3565b9050610e708282610e29565b919050565b600067ffffffffffffffff821115610e9057610e8f610dfa565b5b610e9982610de9565b9050602081019050919050565b82818337600083830152505050565b6000610ec8610ec384610e75565b610e5a565b905082815260208101848484011115610ee457610ee3610de4565b5b610eef848285610ea6565b509392505050565b600082601f830112610f0c57610f0b610ddf565b5b8135610f1c848260208601610eb5565b91505092915050565b600067ffffffffffffffff821115610f4057610f3f610dfa565b5b602082029050602081019050919050565b600080fd5b6000610f69610f6484610f25565b610e5a565b90508083825260208201905060208402830185811115610f8c57610f8b610f51565b5b835b81811015610fb55780610fa18882610d56565b845260208401935050602081019050610f8e565b5050509392505050565b600082601f830112610fd457610fd3610ddf565b5b8135610fe4848260208601610f56565b91505092915050565b6000806000806080858703121561100757611006610ccd565b5b600061101587828801610cf8565b945050602085013567ffffffffffffffff81111561103657611035610cd2565b5b61104287828801610ef7565b935050604061105387828801610cf8565b925050606085013567ffffffffffffffff81111561107457611073610cd2565b5b61108087828801610fbf565b91505092959194509250565b6000602082840312156110a2576110a1610ccd565b5b60006110b084828501610cf8565b91505092915050565b600081519050919050565b600082825260208201905092915050565b6000819050602082019050919050565b6110ee81610cd7565b82525050565b600061110083836110e5565b60208301905092915050565b6000602082019050919050565b6000611124826110b9565b61112e81856110c4565b9350611139836110d5565b8060005b8381101561116a57815161115188826110f4565b975061115c8361110c565b92505060018101905061113d565b5085935050505092915050565b600060208201905081810360008301526111918184611119565b905092915050565b6111a281610cd7565b82525050565b60006020820190506111bd6000830184611199565b92915050565b600081519050919050565b600082825260208201905092915050565b60005b838110156111fd5780820151818401526020810190506111e2565b60008484015250505050565b6000611214826111c3565b61121e81856111ce565b935061122e8185602086016111df565b61123781610de9565b840191505092915050565b61124b81610d2d565b82525050565b60006060820190506112666000830186611199565b81810360208301526112788185611209565b90506112876040830184611242565b949350505050565b60008115159050919050565b6112a48161128f565b82525050565b600060a0820190506112bf6000830188611199565b81810360208301526112d18187611209565b90506112e06040830186611199565b6112ed6060830185611242565b6112fa608083018461129b565b9695505050505050565b600081519050919050565b600082825260208201905092915050565b6000819050602082019050919050565b61133981610d2d565b82525050565b600061134b8383611330565b60208301905092915050565b6000602082019050919050565b600061136f82611304565b611379818561130f565b935061138483611320565b8060005b838110156113b557815161139c888261133f565b97506113a783611357565b925050600181019050611388565b5085935050505092915050565b600060208201905081810360008301526113dc8184611364565b905092915050565b6000602082840312156113fa576113f9610ccd565b5b600082013567ffffffffffffffff81111561141857611417610cd2565b5b61142484828501610ef7565b91505092915050565b7f416d6f756e74206d7573742062652067726561746572207468616e2030000000600082015250565b6000611463601d836111ce565b915061146e8261142d565b602082019050919050565b6000602082019050818103600083015261149281611456565b9050919050565b7f4e656564206174206c65617374206f6e65207061727469636970616e74000000600082015250565b60006114cf601d836111ce565b91506114da82611499565b602082019050919050565b600060208201905081810360008301526114fe816114c2565b9050919050565b7f4e487b7100000000000000000000000000000000000000000000000000000000600052601160045260246000fd5b600061153f82610cd7565b91507fffffffffffffffffffffffffffffffffffffffffffffffffffffffffffffffff820361157157611570611505565b5b600182019050919050565b7f4e487b7100000000000000000000000000000000000000000000000000000000600052602260045260246000fd5b600060028204905060018216806115c357607f821691505b6020821081036115d6576115d561157c565b5b50919050565b60008190508160005260206000209050919050565b60006020601f8301049050919050565b600082821b905092915050565b60006008830261163e7fffffffffffffffffffffffffffffffffffffffffffffffffffffffffffffffff82611601565b6116488683611601565b95508019841693508086168417925050509392505050565b6000819050919050565b600061168561168061167b84610cd7565b611660565b610cd7565b9050919050565b6000819050919050565b61169f8361166a565b6116b36116ab8261168c565b84845461160e565b825550505050565b600090565b6116c86116bb565b6116d3818484611696565b505050565b5b818110156116f7576116ec6000826116c0565b6001810190506116d9565b5050565b601f82111561173c5761170d816115dc565b611716846115f1565b81016020851015611725578190505b611739611731856115f1565b8301826116d8565b50505b505050565b600082821c905092915050565b600061175f60001984600802611741565b1980831691505092915050565b6000611778838361174e565b9150826002028217905092915050565b611791826111c3565b67ffffffffffffffff8111156117aa576117a9610dfa565b5b6117b482546115ab565b6117bf8282856116fb565b600060209050601f8311600181146117f257600084156117e0578287015190505b6117ea858261176c565b865550611852565b601f198416611800866115dc565b60005b8281101561182857848901518255600182019150602085019450602081019050611803565b868310156118455784890151611841601f89168261174e565b8355505b6001600288020188555050505b505050505050565b7f4e487b7100000000000000000000000000000000000000000000000000000000600052601260045260246000fd5b600061189482610cd7565b915061189f83610cd7565b9250826118af576118ae61185a565b5b828204905092915050565b7f4e487b7100000000000000000000000000000000000000000000000000000000600052603260045260246000fd5b60006118f482610dab565b91506118ff83610dab565b925082820390508181126000841216828213600085121516171561192657611925611505565b5b92915050565b600061193782610dab565b915061194283610dab565b92508282019050828112156000831216838212600084121516171561196a57611969611505565b5b92915050565b60006080820190506119856000830187611199565b81810360208301526119978186611209565b90506119a66040830185611199565b6119b36060830184611242565b95945050505050565b7f4f6e6c792061646d696e2063616e20616464206d656d62657273000000000000600082015250565b60006119f2601a836111ce565b91506119fd826119bc565b602082019050919050565b60006020820190508181036000830152611a21816119e5565b9050919050565b7f496e76616c696420616464726573730000000000000000000000000000000000600082015250565b6000611a5e600f836111ce565b9150611a6982611a28565b602082019050919050565b60006020820190508181036000830152611a8d81611a51565b9050919050565b6000604082019050611aa96000830185611199565b611ab66020830184611242565b939250505056fea2646970667358221220572aef4493a0e4b898705a0b90188def27ca48a554aa8d70310146a9b194c0a464736f6c63430008130033",
  "immutableReferences": {},
  "source": "// SPDX-License-Identifier: MIT\r\npragma solidity ^0.8.19;\r\n\r\ncontract ExpenseManager {\r\n\r\n    struct Expense {\r\n        uint256 id;\r\n        string description;\r\n        uint256 amount;\r\n        address payer;\r\n        address[] participants;\r\n        bool settled;\r\n    }\r\n\r\n    struct Group {\r\n        uint256 id;\r\n        string name;\r\n        address admin;\r\n        address[] members;\r\n        uint256[] expenseIds;\r\n    }\r\n\r\n    uint256 public groupCount;\r\n    uint256 public expenseCount;\r\n\r\n    mapping(uint256 => Group) public groups;\r\n    mapping(uint256 => Expense) public expenses;\r\n    mapping(uint256 => mapping(address => int256)) public balances;\r\n\r\n    event GroupCreated(uint256 groupId, string name, address admin);\r\n    event MemberAdded(uint256 groupId, address member);\r\n    event ExpenseAdded(uint256 expenseId, string description, uint256 amount, address payer);\r\n\r\n    function createGroup(string memory _name) public returns (uint256) {\r\n        groupCount++;\r\n        Group storage g = groups[groupCount];\r\n        g.id = groupCount;\r\n        g.name = _name;\r\n        g.admin = msg.sender;\r\n        g.members.push(msg.sender);\r\n\r\n        emit GroupCreated(groupCount, _name, msg.sender);\r\n        return groupCount;\r\n    }\r\n\r\n    function addMember(uint256 _groupId, address _member) public {\r\n        require(groups[_groupId].admin == msg.sender, \"Only admin can add members\");\r\n        require(_member != address(0), \"Invalid address\");\r\n        groups[_groupId].members.push(_member);\r\n        emit MemberAdded(_groupId, _member);\r\n    }\r\n\r\n    function addExpense(\r\n        uint256 _groupId,\r\n        string memory _description,\r\n        uint256 _amount,\r\n        address[] memory _participants\r\n    ) public {\r\n        require(_amount > 0, \"Amount must be greater than 0\");\r\n        require(_participants.length > 0, \"Need at least one participant\");\r\n\r\n        expenseCount++;\r\n        Expense storage e = expenses[expenseCount];\r\n        e.id = expenseCount;\r\n        e.description = _description;\r\n        e.amount = _amount;\r\n        e.payer = msg.sender;\r\n        e.participants = _participants;\r\n        e.settled = false;\r\n\r\n        groups[_groupId].expenseIds.push(expenseCount);\r\n\r\n        uint256 share = _amount / _participants.length;\r\n\r\n        for (uint256 i = 0; i < _participants.length; i++) {\r\n            if (_participants[i] != msg.sender) {\r\n                balances[_groupId][_participants[i]] -= int256(share);\r\n                balances[_groupId][msg.sender] += int256(share);\r\n            }\r\n        }\r\n\r\n        emit ExpenseAdded(expenseCount, _description, _amount, msg.sender);\r\n    }\r\n\r\n    function getMembers(uint256 _groupId) public view returns (address[] memory) {\r\n        return groups[_groupId].members;\r\n    }\r\n\r\n    function getBalance(uint256 _groupId, address _user) public view returns (int256) {\r\n        return balances[_groupId][_user];\r\n    }\r\n\r\n    function getGroupExpenses(uint256 _groupId) public view returns (uint256[] memory) {\r\n        return groups[_groupId].expenseIds;\r\n    }\r\n}\r\n",
  "sourcePath": "C:\\Users\\adity\\Desktop\\Code\\CBD_EXP\\contracts\\ExpenseManager.sol",
  "compiler": {
    "name": "solc",
    "version": "0.8.19+commit.7dd6d404.Emscripten.clang"
  },
  "schemaVersion": "3.4.16",
  "updatedAt": "2026-04-06T09:25:51.708Z",
  "networkType": "ethereum",
  "devdoc": {
    "kind": "dev",
    "methods": {},
    "version": 1
  },
  "userdoc": {
    "kind": "user",
    "methods": {},
    "version": 1
  }
}