{
  "contractName": "SettlementManager",
  "abi": [
    {
      "anonymous": false,
      "inputs": [
        {
          "indexed": false,
          "internalType": "uint256",
          "name": "expenseId",
          "type": "uint256"
        },
        {
          "indexed": false,
          "internalType": "string",
          "name": "description",
          "type": "string"
        },
        {
          "indexed": false,
          "internalType": "uint256",
          "name": "amount",
          "type": "uint256"
        },
        {
          "indexed": false,
          "internalType": "address",
          "name": "payer",
          "type": "address"
        }
      ],
      "name": "ExpenseAdded",
      "type": "event"
    },
    {
      "anonymous": false,
      "inputs": [
        {
          "indexed": false,
          "internalType": "uint256",
          "name": "groupId",
          "type": "uint256"
        },
        {
          "indexed": false,
          "internalType": "string",
          "name": "name",
          "type": "string"
        },
        {
          "indexed": false,
          "internalType": "address",
          "name": "admin",
          "type": "address"
        }
      ],
      "name": "GroupCreated",
      "type": "event"
    },
    {
      "anonymous": false,
      "inputs": [
        {
          "indexed": false,
          "internalType": "uint256",
          "name": "groupId",
          "type": "uint256"
        },
        {
          "indexed": false,
          "internalType": "address",
          "name": "member",
          "type": "address"
        }
      ],
      "name": "MemberAdded",
      "type": "event"
    },
    {
      "anonymous": false,
      "inputs": [
        {
          "indexed": true,
          "internalType": "uint256",
          "name": "groupId",
          "type": "uint256"
        },
        {
          "indexed": true,
          "internalType": "address",
          "name": "payer",
          "type": "address"
        },
        {
          "indexed": true,
          "internalType": "address",
          "name": "receiver",
          "type": "address"
        },
        {
          "indexed": false,
          "internalType": "uint256",
          "name": "amount",
          "type": "uint256"
        }
      ],
      "name": "SettlementMade",
      "type": "event"
    },
    {
      "inputs": [
        {
          "internalType": "uint256",
          "name": "_groupId",
          "type": "uint256"
        },
        {
          "internalType": "string",
          "name": "_description",
          "type": "string"
        },
        {
          "internalType": "uint256",
          "name": "_amount",
          "type": "uint256"
        },
        {
          "internalType": "address[]",
          "name": "_participants",
          "type": "address[]"
        }
      ],
      "name": "addExpense",
      "outputs": [],
      "stateMutability": "nonpayable",
      "type": "function"
    },
    {
      "inputs": [
        {
          "internalType": "uint256",
          "name": "_groupId",
          "type": "uint256"
        },
        {
          "internalType": "address",
          "name": "_member",
          "type": "address"
        }
      ],
      "name": "addMember",
      "outputs": [],
      "stateMutability": "nonpayable",
      "type": "function"
    },
    {
      "inputs": [
        {
          "internalType": "uint256",
          "name": "",
          "type": "uint256"
        },
        {
          "internalType": "address",
          "name": "",
          "type": "address"
        }
      ],
      "name": "balances",
      "outputs": [
        {
          "internalType": "int256",
          "name": "",
          "type": "int256"
        }
      ],
      "stateMutability": "view",
      "type": "function",
      "constant": true
    },
    {
      "inputs": [
        {
          "internalType": "string",
          "name": "_name",
          "type": "string"
        }
      ],
      "name": "createGroup",
      "outputs": [
        {
          "internalType": "uint256",
          "name": "",
          "type": "uint256"
        }
      ],
      "stateMutability": "nonpayable",
      "type": "function"
    },
    {
      "inputs": [],
      "name": "expenseCount",
      "outputs": [
        {
          "internalType": "uint256",
          "name": "",
          "type": "uint256"
        }
      ],
      "stateMutability": "view",
      "type": "function",
      "constant": true
    },
    {
      "inputs": [
        {
          "internalType": "uint256",
          "name": "",
          "type": "uint256"
        }
      ],
      "name": "expenses",
      "outputs": [
        {
          "internalType": "uint256",
          "name": "id",
          "type": "uint256"
        },
        {
          "internalType": "string",
          "name": "description",
          "type": "string"
        },
        {
          "internalType": "uint256",
          "name": "amount",
          "type": "uint256"
        },
        {
          "internalType": "address",
          "name": "payer",
          "type": "address"
        },
        {
          "internalType": "bool",
          "name": "settled",
          "type": "bool"
        }
      ],
      "stateMutability": "view",
      "type": "function",
      "constant": true
    },
    {
      "inputs": [
        {
          "internalType": "uint256",
          "name": "_groupId",
          "type": "uint256"
        },
        {
          "internalType": "address",
          "name": "_user",
          "type": "address"
        }
      ],
      "name": "getBalance",
      "outputs": [
        {
          "internalType": "int256",
          "name": "",
          "type": "int256"
        }
      ],
      "stateMutability": "view",
      "type": "function",
      "constant": true
    },
    {
      "inputs": [
        {
          "internalType": "uint256",
          "name": "_groupId",
          "type": "uint256"
        }
      ],
      "name": "getGroupExpenses",
      "outputs": [
        {
          "internalType": "uint256[]",
          "name": "",
          "type": "uint256[]"
        }
      ],
      "stateMutability": "view",
      "type": "function",
      "constant": true
    },
    {
      "inputs": [
        {
          "internalType": "uint256",
          "name": "_groupId",
          "type": "uint256"
        }
      ],
      "name": "getMembers",
      "outputs": [
        {
          "internalType": "address[]",
          "name": "",
          "type": "address[]"
        }
      ],
      "stateMutability": "view",
      "type": "function",
      "constant": true
    },
    {
      "inputs": [],
      "name": "groupCount",
      "outputs": [
        {
          "internalType": "uint256",
          "name": "",
          "type": "uint256"
        }
      ],
      "stateMutability": "view",
      "type": "function",
      "constant": true
    },
    {
      "inputs": [
        {
          "internalType": "uint256",
          "name": "",
          "type": "uint256"
        }
      ],
      "name": "groups",
      "outputs": [
        {
          "internalType": "uint256",
          "name": "id",
          "type": "uint256"
        },
        {
          "internalType": "string",
          "name": "name",
          "type": "string"
        },
        {
          "internalType": "address",
          "name": "admin",
          "type": "address"
        }
      ],
      "stateMutability": "view",
      "type": "function",
      "constant": true
    },
    {
      "inputs": [
        {
          "internalType": "uint256",
          "name": "_groupId",
          "type": "uint256"
        },
        {
          "internalType": "address payable",
          "name": "_receiver",
          "type": "address"
        }
      ],
      "name": "settle",
      "outputs": [],
      "stateMutability": "payable",
      "type": "function",
      "payable": true
    },
    {
      "inputs": [
        {
          "internalType": "uint256",
          "name": "_groupId",
          "type": "uint256"
        },
        {
          "internalType": "address",
          "name": "_user",
          "type": "address"
        }
      ],
      "name": "isSettled",
      "outputs": [
        {
          "internalType": "bool",
          "name": "",
          "type": "bool"
        }
      ],
      "stateMutability": "view",
      "type": "function",
      "constant": true
    },
    {
      "inputs": [
        {
          "internalType": "uint256",
          "name": "_groupId",
          "type": "uint256"
        },
        {
          "internalType": "address",
          "name": "_user",
          "type": "address"
        }
      ],
      "name": "getNetBalance",
      "outputs": [
        {
          "internalType": "string",
          "name": "status",
          "type": "string"
        },
        {
          "internalType": "uint256",
          "name": "absAmount",
          "type": "uint256"
        }
      ],
      "stateMutability": "view",
      "type": "function",
      "constant": true
    },
    {
      "inputs": [
        {
          "internalType": "uint256",
          "name": "_groupId",
          "type": "uint256"
        }
      ],
      "name": "getAllBalances",
      "outputs": [
        {
          "internalType": "address[]",
          "name": "members",
          "type": "address[]"
        },
        {
          "internalType": "int256[]",
          "name": "memberBalances",
          "type": "int256[]"
        }
      ],
      "stateMutability": "view",
      "type": "function",
      "constant": true
    }
  ],
  "bytecode": "0x608060405234801561001057600080fd5b506128d4806100206000396000f3fe6080604052600436106100e85760003560e01c80638f23b3261161008a578063b0a7945911610059578063b0a7945914610326578063c477ecab14610363578063dc2ddcae146103a0578063f4ecdcee146103dd576100e8565b80638f23b3261461025f578063962d19381461028a57806396324bd4146102a6578063af4afe0a146102e5576100e8565b806340dad46b116100c657806340dad46b14610190578063500b136f146101ce57806352e7df5d1461020b57806374d0a67614610236576100e8565b80631f320331146100ed5780632f0e0bdf1461012a5780633086443d14610167575b600080fd5b3480156100f957600080fd5b50610114600480360381019061010f9190611672565b61041b565b60405161012191906116cb565b60405180910390f35b34801561013657600080fd5b50610151600480360381019061014c9190611672565b610440565b60405161015e9190611701565b60405180910390f35b34801561017357600080fd5b5061018e6004803603810190610189919061192a565b61049d565b005b34801561019c57600080fd5b506101b760048036038101906101b29190611672565b6107e1565b6040516101c5929190611a57565b60405180910390f35b3480156101da57600080fd5b506101f560048036038101906101f09190611a87565b61091e565b6040516102029190611b72565b60405180910390f35b34801561021757600080fd5b5061022061098c565b60405161022d9190611b94565b60405180910390f35b34801561024257600080fd5b5061025d60048036038101906102589190611672565b610992565b005b34801561026b57600080fd5b50610274610b59565b6040516102819190611b94565b60405180910390f35b6102a4600480360381019061029f9190611bed565b610b5f565b005b3480156102b257600080fd5b506102cd60048036038101906102c89190611a87565b610f82565b6040516102dc93929190611c3c565b60405180910390f35b3480156102f157600080fd5b5061030c60048036038101906103079190611a87565b611054565b60405161031d959493929190611c7a565b60405180910390f35b34801561033257600080fd5b5061034d60048036038101906103489190611672565b61113f565b60405161035a91906116cb565b60405180910390f35b34801561036f57600080fd5b5061038a60048036038101906103859190611a87565b61119a565b6040516103979190611d92565b60405180910390f35b3480156103ac57600080fd5b506103c760048036038101906103c29190611db4565b61123e565b6040516103d49190611b94565b60405180910390f35b3480156103e957600080fd5b5061040460048036038101906103ff9190611a87565b61137c565b604051610412929190611ebb565b60405180910390f35b6004602052816000526040600020602052806000526040600020600091509150505481565b6000806004600085815260200190815260200160002060008473ffffffffffffffffffffffffffffffffffffffff1673ffffffffffffffffffffffffffffffffffffffff1681526020019081526020016000205414905092915050565b600082116104e0576040517f08c379a00000000000000000000000000000000000000000000000000000000081526004016104d790611f3e565b60405180910390fd5b6000815111610524576040517f08c379a000000000000000000000000000000000000000000000000000000000815260040161051b90611faa565b60405180910390fd5b6001600081548092919061053790611ff9565b919050555060006003600060015481526020019081526020016000209050600154816000018190555083816001019081610571919061224d565b50828160020181905550338160030160006101000a81548173ffffffffffffffffffffffffffffffffffffffff021916908373ffffffffffffffffffffffffffffffffffffffff160217905550818160040190805190602001906105d6929190611523565b5060008160050160006101000a81548160ff0219169083151502179055506002600086815260200190815260200160002060040160015490806001815401808255809150506001900390600052602060002001600090919091909150556000825184610642919061234e565b905060005b8351811015610799573373ffffffffffffffffffffffffffffffffffffffff1684828151811061067a5761067961237f565b5b602002602001015173ffffffffffffffffffffffffffffffffffffffff161461078657816004600089815260200190815260200160002060008684815181106106c6576106c561237f565b5b602002602001015173ffffffffffffffffffffffffffffffffffffffff1673ffffffffffffffffffffffffffffffffffffffff168152602001908152602001600020600082825461071791906123ae565b92505081905550816004600089815260200190815260200160002060003373ffffffffffffffffffffffffffffffffffffffff1673ffffffffffffffffffffffffffffffffffffffff168152602001908152602001600020600082825461077e91906123f1565b925050819055505b808061079190611ff9565b915050610647565b507f8554d4a7658569a74133abedf43c48e41491964da8c9338552856d64dc6f7f036001548686336040516107d19493929190612435565b60405180910390a1505050505050565b60606000806004600086815260200190815260200160002060008573ffffffffffffffffffffffffffffffffffffffff1673ffffffffffffffffffffffffffffffffffffffff168152602001908152602001600020549050600081131561088457806040518060400160405280600c81526020017f596f7520617265206f7765640000000000000000000000000000000000000000815250909250925050610917565b60008112156108d8578061089790612481565b6040518060400160405280600781526020017f596f75206f776500000000000000000000000000000000000000000000000000815250909250925050610917565b60006040518060400160405280600781526020017f536574746c6564000000000000000000000000000000000000000000000000008152509092509250505b9250929050565b60606002600083815260200190815260200160002060040180548060200260200160405190810160405280929190818152602001828054801561098057602002820191906000526020600020905b81548152602001906001019080831161096c575b50505050509050919050565b60015481565b3373ffffffffffffffffffffffffffffffffffffffff166002600084815260200190815260200160002060020160009054906101000a900473ffffffffffffffffffffffffffffffffffffffff1673ffffffffffffffffffffffffffffffffffffffff1614610a36576040517f08c379a0000000000000000000000000000000000000000000000000000000008152600401610a2d90612515565b60405180910390fd5b600073ffffffffffffffffffffffffffffffffffffffff168173ffffffffffffffffffffffffffffffffffffffff1603610aa5576040517f08c379a0000000000000000000000000000000000000000000000000000000008152600401610a9c90612581565b60405180910390fd5b60026000838152602001908152602001600020600301819080600181540180825580915050600190039060005260206000200160009091909190916101000a81548173ffffffffffffffffffffffffffffffffffffffff021916908373ffffffffffffffffffffffffffffffffffffffff1602179055507ff328ac0f8bcae00933fe87ba0aa2d0d505c1df94bc9c1aa05b8441c28b74032c8282604051610b4d9291906125a1565b60405180910390a15050565b60005481565b60003411610ba2576040517f08c379a0000000000000000000000000000000000000000000000000000000008152600401610b9990612616565b60405180910390fd5b600073ffffffffffffffffffffffffffffffffffffffff168173ffffffffffffffffffffffffffffffffffffffff1603610c11576040517f08c379a0000000000000000000000000000000000000000000000000000000008152600401610c0890612682565b60405180910390fd5b3373ffffffffffffffffffffffffffffffffffffffff168173ffffffffffffffffffffffffffffffffffffffff1603610c7f576040517f08c379a0000000000000000000000000000000000000000000000000000000008152600401610c76906126ee565b60405180910390fd5b60006004600084815260200190815260200160002060003373ffffffffffffffffffffffffffffffffffffffff1673ffffffffffffffffffffffffffffffffffffffff16815260200190815260200160002054905060006004600085815260200190815260200160002060008473ffffffffffffffffffffffffffffffffffffffff1673ffffffffffffffffffffffffffffffffffffffff16815260200190815260200160002054905060008212610d6c576040517f08c379a0000000000000000000000000000000000000000000000000000000008152600401610d6390612780565b60405180910390fd5b60008113610daf576040517f08c379a0000000000000000000000000000000000000000000000000000000008152600401610da690612812565b60405180910390fd5b600082610dbb90612481565b905080341115610e00576040517f08c379a0000000000000000000000000000000000000000000000000000000008152600401610df79061287e565b60405180910390fd5b346004600087815260200190815260200160002060003373ffffffffffffffffffffffffffffffffffffffff1673ffffffffffffffffffffffffffffffffffffffff1681526020019081526020016000206000828254610e6091906123f1565b92505081905550346004600087815260200190815260200160002060008673ffffffffffffffffffffffffffffffffffffffff1673ffffffffffffffffffffffffffffffffffffffff1681526020019081526020016000206000828254610ec791906123ae565b925050819055508373ffffffffffffffffffffffffffffffffffffffff166108fc349081150290604051600060405180830381858888f19350505050158015610f14573d6000803e3d6000fd5b508373ffffffffffffffffffffffffffffffffffffffff163373ffffffffffffffffffffffffffffffffffffffff16867fb73414e83fe48d03a430abd012c3314bf45c74419cd1b4a7db8a774b3538ce5334604051610f739190611b94565b60405180910390a45050505050565b6002602052806000526040600020600091509050806000015490806001018054610fab90612070565b80601f0160208091040260200160405190810160405280929190818152602001828054610fd790612070565b80156110245780601f10610ff957610100808354040283529160200191611024565b820191906000526020600020905b81548152906001019060200180831161100757829003601f168201915b5050505050908060020160009054906101000a900473ffffffffffffffffffffffffffffffffffffffff16905083565b600360205280600052604060002060009150905080600001549080600101805461107d90612070565b80601f01602080910402602001604051908101604052809291908181526020018280546110a990612070565b80156110f65780601f106110cb576101008083540402835291602001916110f6565b820191906000526020600020905b8154815290600101906020018083116110d957829003601f168201915b5050505050908060020154908060030160009054906101000a900473ffffffffffffffffffffffffffffffffffffffff16908060050160009054906101000a900460ff16905085565b60006004600084815260200190815260200160002060008373ffffffffffffffffffffffffffffffffffffffff1673ffffffffffffffffffffffffffffffffffffffff16815260200190815260200160002054905092915050565b60606002600083815260200190815260200160002060030180548060200260200160405190810160405280929190818152602001828054801561123257602002820191906000526020600020905b8160009054906101000a900473ffffffffffffffffffffffffffffffffffffffff1673ffffffffffffffffffffffffffffffffffffffff16815260200190600101908083116111e8575b50505050509050919050565b600080600081548092919061125290611ff9565b919050555060006002600080548152602001908152602001600020905060005481600001819055508281600101908161128b919061224d565b50338160020160006101000a81548173ffffffffffffffffffffffffffffffffffffffff021916908373ffffffffffffffffffffffffffffffffffffffff16021790555080600301339080600181540180825580915050600190039060005260206000200160009091909190916101000a81548173ffffffffffffffffffffffffffffffffffffffff021916908373ffffffffffffffffffffffffffffffffffffffff1602179055507f18c62fe73d1b8ec45d443cf56b0c4966349cbb70ab036ba3ebfb065932ad17b0600054843360405161136993929190611c3c565b60405180910390a1600054915050919050565b60608060006002600085815260200190815260200160002060030180548060200260200160405190810160405280929190818152602001828054801561141757602002820191906000526020600020905b8160009054906101000a900473ffffffffffffffffffffffffffffffffffffffff1673ffffffffffffffffffffffffffffffffffffffff16815260200190600101908083116113cd575b505050505090506000815167ffffffffffffffff81111561143b5761143a611737565b5b6040519080825280602002602001820160405280156114695781602001602082028036833780820191505090505b50905060005b8251811015611515576004600087815260200190815260200160002060008483815181106114a05761149f61237f565b5b602002602001015173ffffffffffffffffffffffffffffffffffffffff1673ffffffffffffffffffffffffffffffffffffffff168152602001908152602001600020548282815181106114f6576114f561237f565b5b602002602001018181525050808061150d90611ff9565b91505061146f565b508181935093505050915091565b82805482825590600052602060002090810192821561159c579160200282015b8281111561159b5782518260006101000a81548173ffffffffffffffffffffffffffffffffffffffff021916908373ffffffffffffffffffffffffffffffffffffffff16021790555091602001919060010190611543565b5b5090506115a991906115ad565b5090565b5b808211156115c65760008160009055506001016115ae565b5090565b6000604051905090565b600080fd5b600080fd5b6000819050919050565b6115f1816115de565b81146115fc57600080fd5b50565b60008135905061160e816115e8565b92915050565b600073ffffffffffffffffffffffffffffffffffffffff82169050919050565b600061163f82611614565b9050919050565b61164f81611634565b811461165a57600080fd5b50565b60008135905061166c81611646565b92915050565b60008060408385031215611689576116886115d4565b5b6000611697858286016115ff565b92505060206116a88582860161165d565b9150509250929050565b6000819050919050565b6116c5816116b2565b82525050565b60006020820190506116e060008301846116bc565b92915050565b60008115159050919050565b6116fb816116e6565b82525050565b600060208201905061171660008301846116f2565b92915050565b600080fd5b600080fd5b6000601f19601f8301169050919050565b7f4e487b7100000000000000000000000000000000000000000000000000000000600052604160045260246000fd5b61176f82611726565b810181811067ffffffffffffffff8211171561178e5761178d611737565b5b80604052505050565b60006117a16115ca565b90506117ad8282611766565b919050565b600067ffffffffffffffff8211156117cd576117cc611737565b5b6117d682611726565b9050602081019050919050565b82818337600083830152505050565b6000611805611800846117b2565b611797565b90508281526020810184848401111561182157611820611721565b5b61182c8482856117e3565b509392505050565b600082601f8301126118495761184861171c565b5b81356118598482602086016117f2565b91505092915050565b600067ffffffffffffffff82111561187d5761187c611737565b5b602082029050602081019050919050565b600080fd5b60006118a66118a184611862565b611797565b905080838252602082019050602084028301858111156118c9576118c861188e565b5b835b818110156118f257806118de888261165d565b8452602084019350506020810190506118cb565b5050509392505050565b600082601f8301126119115761191061171c565b5b8135611921848260208601611893565b91505092915050565b60008060008060808587031215611944576119436115d4565b5b6000611952878288016115ff565b945050602085013567ffffffffffffffff811115611973576119726115d9565b5b61197f87828801611834565b9350506040611990878288016115ff565b925050606085013567ffffffffffffffff8111156119b1576119b06115d9565b5b6119bd878288016118fc565b91505092959194509250565b600081519050919050565b600082825260208201905092915050565b60005b83811015611a035780820151818401526020810190506119e8565b60008484015250505050565b6000611a1a826119c9565b611a2481856119d4565b9350611a348185602086016119e5565b611a3d81611726565b840191505092915050565b611a51816115de565b82525050565b60006040820190508181036000830152611a718185611a0f565b9050611a806020830184611a48565b9392505050565b600060208284031215611a9d57611a9c6115d4565b5b6000611aab848285016115ff565b91505092915050565b600081519050919050565b600082825260208201905092915050565b6000819050602082019050919050565b611ae9816115de565b82525050565b6000611afb8383611ae0565b60208301905092915050565b6000602082019050919050565b6000611b1f82611ab4565b611b298185611abf565b9350611b3483611ad0565b8060005b83811015611b65578151611b4c8882611aef565b9750611b5783611b07565b925050600181019050611b38565b5085935050505092915050565b60006020820190508181036000830152611b8c8184611b14565b905092915050565b6000602082019050611ba96000830184611a48565b92915050565b6000611bba82611614565b9050919050565b611bca81611baf565b8114611bd557600080fd5b50565b600081359050611be781611bc1565b92915050565b60008060408385031215611c0457611c036115d4565b5b6000611c12858286016115ff565b9250506020611c2385828601611bd8565b9150509250929050565b611c3681611634565b82525050565b6000606082019050611c516000830186611a48565b8181036020830152611c638185611a0f565b9050611c726040830184611c2d565b949350505050565b600060a082019050611c8f6000830188611a48565b8181036020830152611ca18187611a0f565b9050611cb06040830186611a48565b611cbd6060830185611c2d565b611cca60808301846116f2565b9695505050505050565b600081519050919050565b600082825260208201905092915050565b6000819050602082019050919050565b611d0981611634565b82525050565b6000611d1b8383611d00565b60208301905092915050565b6000602082019050919050565b6000611d3f82611cd4565b611d498185611cdf565b9350611d5483611cf0565b8060005b83811015611d85578151611d6c8882611d0f565b9750611d7783611d27565b925050600181019050611d58565b5085935050505092915050565b60006020820190508181036000830152611dac8184611d34565b905092915050565b600060208284031215611dca57611dc96115d4565b5b600082013567ffffffffffffffff811115611de857611de76115d9565b5b611df484828501611834565b91505092915050565b600081519050919050565b600082825260208201905092915050565b6000819050602082019050919050565b611e32816116b2565b82525050565b6000611e448383611e29565b60208301905092915050565b6000602082019050919050565b6000611e6882611dfd565b611e728185611e08565b9350611e7d83611e19565b8060005b83811015611eae578151611e958882611e38565b9750611ea083611e50565b925050600181019050611e81565b5085935050505092915050565b60006040820190508181036000830152611ed58185611d34565b90508181036020830152611ee98184611e5d565b90509392505050565b7f416d6f756e74206d7573742062652067726561746572207468616e2030000000600082015250565b6000611f28601d836119d4565b9150611f3382611ef2565b602082019050919050565b60006020820190508181036000830152611f5781611f1b565b9050919050565b7f4e656564206174206c65617374206f6e65207061727469636970616e74000000600082015250565b6000611f94601d836119d4565b9150611f9f82611f5e565b602082019050919050565b60006020820190508181036000830152611fc381611f87565b9050919050565b7f4e487b7100000000000000000000000000000000000000000000000000000000600052601160045260246000fd5b6000612004826115de565b91507fffffffffffffffffffffffffffffffffffffffffffffffffffffffffffffffff820361203657612035611fca565b5b600182019050919050565b7f4e487b7100000000000000000000000000000000000000000000000000000000600052602260045260246000fd5b6000600282049050600182168061208857607f821691505b60208210810361209b5761209a612041565b5b50919050565b60008190508160005260206000209050919050565b60006020601f8301049050919050565b600082821b905092915050565b6000600883026121037fffffffffffffffffffffffffffffffffffffffffffffffffffffffffffffffff826120c6565b61210d86836120c6565b95508019841693508086168417925050509392505050565b6000819050919050565b600061214a612145612140846115de565b612125565b6115de565b9050919050565b6000819050919050565b6121648361212f565b61217861217082612151565b8484546120d3565b825550505050565b600090565b61218d612180565b61219881848461215b565b505050565b5b818110156121bc576121b1600082612185565b60018101905061219e565b5050565b601f821115612201576121d2816120a1565b6121db846120b6565b810160208510156121ea578190505b6121fe6121f6856120b6565b83018261219d565b50505b505050565b600082821c905092915050565b600061222460001984600802612206565b1980831691505092915050565b600061223d8383612213565b9150826002028217905092915050565b612256826119c9565b67ffffffffffffffff81111561226f5761226e611737565b5b6122798254612070565b6122848282856121c0565b600060209050601f8311600181146122b757600084156122a5578287015190505b6122af8582612231565b865550612317565b601f1984166122c5866120a1565b60005b828110156122ed578489015182556001820191506020850194506020810190506122c8565b8683101561230a5784890151612306601f891682612213565b8355505b6001600288020188555050505b505050505050565b7f4e487b7100000000000000000000000000000000000000000000000000000000600052601260045260246000fd5b6000612359826115de565b9150612364836115de565b9250826123745761237361231f565b5b828204905092915050565b7f4e487b7100000000000000000000000000000000000000000000000000000000600052603260045260246000fd5b60006123b9826116b2565b91506123c4836116b2565b92508282039050818112600084121682821360008512151617156123eb576123ea611fca565b5b92915050565b60006123fc826116b2565b9150612407836116b2565b92508282019050828112156000831216838212600084121516171561242f5761242e611fca565b5b92915050565b600060808201905061244a6000830187611a48565b818103602083015261245c8186611a0f565b905061246b6040830185611a48565b6124786060830184611c2d565b95945050505050565b600061248c826116b2565b91507f800000000000000000000000000000000000000000000000000000000000000082036124be576124bd611fca565b5b816000039050919050565b7f4f6e6c792061646d696e2063616e20616464206d656d62657273000000000000600082015250565b60006124ff601a836119d4565b915061250a826124c9565b602082019050919050565b6000602082019050818103600083015261252e816124f2565b9050919050565b7f496e76616c696420616464726573730000000000000000000000000000000000600082015250565b600061256b600f836119d4565b915061257682612535565b602082019050919050565b6000602082019050818103600083015261259a8161255e565b9050919050565b60006040820190506125b66000830185611a48565b6125c36020830184611c2d565b9392505050565b7f53656e642045544820746f20736574746c650000000000000000000000000000600082015250565b60006126006012836119d4565b915061260b826125ca565b602082019050919050565b6000602082019050818103600083015261262f816125f3565b9050919050565b7f496e76616c696420726563656976657200000000000000000000000000000000600082015250565b600061266c6010836119d4565b915061267782612636565b602082019050919050565b6000602082019050818103600083015261269b8161265f565b9050919050565b7f43616e6e6f7420736574746c65207769746820796f757273656c660000000000600082015250565b60006126d8601b836119d4565b91506126e3826126a2565b602082019050919050565b60006020820190508181036000830152612707816126cb565b9050919050565b7f596f7520646f6e2774206f776520616e797468696e6720696e2074686973206760008201527f726f757000000000000000000000000000000000000000000000000000000000602082015250565b600061276a6024836119d4565b91506127758261270e565b604082019050919050565b600060208201905081810360008301526127998161275d565b9050919050565b7f5265636569766572206973206e6f74206f77656420616e797468696e6720696e60008201527f20746869732067726f7570000000000000000000000000000000000000000000602082015250565b60006127fc602b836119d4565b9150612807826127a0565b604082019050919050565b6000602082019050818103600083015261282b816127ef565b9050919050565b7f5061796d656e74206578636565647320796f7572206465627400000000000000600082015250565b60006128686019836119d4565b915061287382612832565b602082019050919050565b600060208201905081810360008301526128978161285b565b905091905056fea2646970667358221220db587dd26b43c281ed19648a828aa97ab3fcc29b40ecf2d5ce2fdabed842165a64736f6c63430008130033",
  "immutableReferences": {},
  "source": "// SPDX-License-Identifier: MIT\r\npragma solidity ^0.8.19;\r\n\r\nimport \"./ExpenseManager.sol\";\r\n\r\ncontract SettlementManager is ExpenseManager {\r\n\r\n    event SettlementMade(\r\n        uint256 indexed groupId,\r\n        address indexed payer,\r\n        address indexed receiver,\r\n        uint256 amount\r\n    );\r\n\r\n    // Validate sender owes, receiver is owed, amount doesn't exceed debt\r\n    function settle(uint256 _groupId, address payable _receiver) public payable {\r\n        require(msg.value > 0, \"Send ETH to settle\");\r\n        require(_receiver != address(0), \"Invalid receiver\");\r\n        require(_receiver != msg.sender, \"Cannot settle with yourself\");\r\n\r\n        int256 senderBal = balances[_groupId][msg.sender];\r\n        int256 receiverBal = balances[_groupId][_receiver];\r\n\r\n        require(senderBal < 0, \"You don't owe anything in this group\");\r\n        require(receiverBal > 0, \"Receiver is not owed anything in this group\");\r\n\r\n        // msg.value must not exceed sender's actual debt\r\n        uint256 debt = uint256(-senderBal);\r\n        require(msg.value <= debt, \"Payment exceeds your debt\");\r\n\r\n        balances[_groupId][msg.sender] += int256(msg.value);\r\n        balances[_groupId][_receiver] -= int256(msg.value);\r\n\r\n        _receiver.transfer(msg.value);\r\n\r\n        emit SettlementMade(_groupId, msg.sender, _receiver, msg.value);\r\n    }\r\n\r\n    function isSettled(uint256 _groupId, address _user) public view returns (bool) {\r\n        return balances[_groupId][_user] == 0;\r\n    }\r\n\r\n    function getNetBalance(uint256 _groupId, address _user)\r\n        public\r\n        view\r\n        returns (string memory status, uint256 absAmount)\r\n    {\r\n        int256 bal = balances[_groupId][_user];\r\n        if (bal > 0) {\r\n            return (\"You are owed\", uint256(bal));\r\n        } else if (bal < 0) {\r\n            return (\"You owe\", uint256(-bal));\r\n        } else {\r\n            return (\"Settled\", 0);\r\n        }\r\n    }\r\n\r\n    // Returns all balances for all members in a group — used by frontend for debt graph\r\n    function getAllBalances(uint256 _groupId)\r\n        public\r\n        view\r\n        returns (address[] memory members, int256[] memory memberBalances)\r\n    {\r\n        address[] memory _members = groups[_groupId].members;\r\n        int256[] memory _balances = new int256[](_members.length);\r\n        for (uint256 i = 0; i < _members.length; i++) {\r\n            _balances[i] = balances[_groupId][_members[i]];\r\n        }\r\n        return (_members, _balances);\r\n    }\r\n}\r\n",
  "sourcePath": "C:\\Users\\adity\\Desktop\\Code\\CBD_EXP\\contracts\\SettlementManager.sol",
  "compiler": {
    "name": "solc",
    "version": "0.8.19+commit.7dd6d404.Emscripten.clang"
  },
  "schemaVersion": "3.4.16",
  "updatedAt": "2026-04-18T13:03:07.136Z",
  "networkType": "ethereum",
  "devdoc": {
    "kind": "dev",
    "methods": {},
    "version": 1
  },
  "userdoc": {
    "kind": "user",
    "methods": {},
    "version": 1
  }
}