{
  "contractName": "SettlementManager",
  "abi": [
    {
      "anonymous": false,
      "inputs": [
        {
          "indexed": false,
          "internalType": "uint256",
          "name": "groupId",
          "type": "uint256"
        },
        {
          "indexed": false,
          "internalType": "address",
          "name": "user",
          "type": "address"
        }
      ],
      "name": "BalanceCleared",
      "type": "event"
    },
    {
      "anonymous": false,
      "inputs": [
        {
          "indexed": false,
          "internalType": "uint256",
          "name": "expenseId",
          "type": "uint256"
        },
        {
          "indexed": false,
          "internalType": "string",
          "name": "description",
          "type": "string"
        },
        {
          "indexed": false,
          "internalType": "uint256",
          "name": "amount",
          "type": "uint256"
        },
        {
          "indexed": false,
          "internalType": "address",
          "name": "payer",
          "type": "address"
        }
      ],
      "name": "ExpenseAdded",
      "type": "event"
    },
    {
      "anonymous": false,
      "inputs": [
        {
          "indexed": false,
          "internalType": "uint256",
          "name": "groupId",
          "type": "uint256"
        },
        {
          "indexed": false,
          "internalType": "string",
          "name": "name",
          "type": "string"
        },
        {
          "indexed": false,
          "internalType": "address",
          "name": "admin",
          "type": "address"
        }
      ],
      "name": "GroupCreated",
      "type": "event"
    },
    {
      "anonymous": false,
      "inputs": [
        {
          "indexed": false,
          "internalType": "uint256",
          "name": "groupId",
          "type": "uint256"
        },
        {
          "indexed": false,
          "internalType": "address",
          "name": "member",
          "type": "address"
        }
      ],
      "name": "MemberAdded",
      "type": "event"
    },
    {
      "anonymous": false,
      "inputs": [
        {
          "indexed": false,
          "internalType": "uint256",
          "name": "groupId",
          "type": "uint256"
        },
        {
          "indexed": true,
          "internalType": "address",
          "name": "payer",
          "type": "address"
        },
        {
          "indexed": true,
          "internalType": "address",
          "name": "receiver",
          "type": "address"
        },
        {
          "indexed": false,
          "internalType": "uint256",
          "name": "amount",
          "type": "uint256"
        }
      ],
      "name": "SettlementMade",
      "type": "event"
    },
    {
      "inputs": [
        {
          "internalType": "uint256",
          "name": "_groupId",
          "type": "uint256"
        },
        {
          "internalType": "string",
          "name": "_description",
          "type": "string"
        },
        {
          "internalType": "uint256",
          "name": "_amount",
          "type": "uint256"
        },
        {
          "internalType": "address[]",
          "name": "_participants",
          "type": "address[]"
        }
      ],
      "name": "addExpense",
      "outputs": [],
      "stateMutability": "nonpayable",
      "type": "function"
    },
    {
      "inputs": [
        {
          "internalType": "uint256",
          "name": "_groupId",
          "type": "uint256"
        },
        {
          "internalType": "address",
          "name": "_member",
          "type": "address"
        }
      ],
      "name": "addMember",
      "outputs": [],
      "stateMutability": "nonpayable",
      "type": "function"
    },
    {
      "inputs": [
        {
          "internalType": "uint256",
          "name": "",
          "type": "uint256"
        },
        {
          "internalType": "address",
          "name": "",
          "type": "address"
        }
      ],
      "name": "balances",
      "outputs": [
        {
          "internalType": "int256",
          "name": "",
          "type": "int256"
        }
      ],
      "stateMutability": "view",
      "type": "function",
      "constant": true
    },
    {
      "inputs": [
        {
          "internalType": "string",
          "name": "_name",
          "type": "string"
        }
      ],
      "name": "createGroup",
      "outputs": [
        {
          "internalType": "uint256",
          "name": "",
          "type": "uint256"
        }
      ],
      "stateMutability": "nonpayable",
      "type": "function"
    },
    {
      "inputs": [],
      "name": "expenseCount",
      "outputs": [
        {
          "internalType": "uint256",
          "name": "",
          "type": "uint256"
        }
      ],
      "stateMutability": "view",
      "type": "function",
      "constant": true
    },
    {
      "inputs": [
        {
          "internalType": "uint256",
          "name": "",
          "type": "uint256"
        }
      ],
      "name": "expenses",
      "outputs": [
        {
          "internalType": "uint256",
          "name": "id",
          "type": "uint256"
        },
        {
          "internalType": "string",
          "name": "description",
          "type": "string"
        },
        {
          "internalType": "uint256",
          "name": "amount",
          "type": "uint256"
        },
        {
          "internalType": "address",
          "name": "payer",
          "type": "address"
        },
        {
          "internalType": "bool",
          "name": "settled",
          "type": "bool"
        }
      ],
      "stateMutability": "view",
      "type": "function",
      "constant": true
    },
    {
      "inputs": [
        {
          "internalType": "uint256",
          "name": "_groupId",
          "type": "uint256"
        },
        {
          "internalType": "address",
          "name": "_user",
          "type": "address"
        }
      ],
      "name": "getBalance",
      "outputs": [
        {
          "internalType": "int256",
          "name": "",
          "type": "int256"
        }
      ],
      "stateMutability": "view",
      "type": "function",
      "constant": true
    },
    {
      "inputs": [
        {
          "internalType": "uint256",
          "name": "_groupId",
          "type": "uint256"
        }
      ],
      "name": "getGroupExpenses",
      "outputs": [
        {
          "internalType": "uint256[]",
          "name": "",
          "type": "uint256[]"
        }
      ],
      "stateMutability": "view",
      "type": "function",
      "constant": true
    },
    {
      "inputs": [
        {
          "internalType": "uint256",
          "name": "_groupId",
          "type": "uint256"
        }
      ],
      "name": "getMembers",
      "outputs": [
        {
          "internalType": "address[]",
          "name": "",
          "type": "address[]"
        }
      ],
      "stateMutability": "view",
      "type": "function",
      "constant": true
    },
    {
      "inputs": [],
      "name": "groupCount",
      "outputs": [
        {
          "internalType": "uint256",
          "name": "",
          "type": "uint256"
        }
      ],
      "stateMutability": "view",
      "type": "function",
      "constant": true
    },
    {
      "inputs": [
        {
          "internalType": "uint256",
          "name": "",
          "type": "uint256"
        }
      ],
      "name": "groups",
      "outputs": [
        {
          "internalType": "uint256",
          "name": "id",
          "type": "uint256"
        },
        {
          "internalType": "string",
          "name": "name",
          "type": "string"
        },
        {
          "internalType": "address",
          "name": "admin",
          "type": "address"
        }
      ],
      "stateMutability": "view",
      "type": "function",
      "constant": true
    },
    {
      "inputs": [
        {
          "internalType": "uint256",
          "name": "_groupId",
          "type": "uint256"
        },
        {
          "internalType": "address payable",
          "name": "_receiver",
          "type": "address"
        }
      ],
      "name": "settle",
      "outputs": [],
      "stateMutability": "payable",
      "type": "function",
      "payable": true
    },
    {
      "inputs": [
        {
          "internalType": "uint256",
          "name": "_groupId",
          "type": "uint256"
        },
        {
          "internalType": "address",
          "name": "_user",
          "type": "address"
        }
      ],
      "name": "isSettled",
      "outputs": [
        {
          "internalType": "bool",
          "name": "",
          "type": "bool"
        }
      ],
      "stateMutability": "view",
      "type": "function",
      "constant": true
    },
    {
      "inputs": [
        {
          "internalType": "uint256",
          "name": "_groupId",
          "type": "uint256"
        },
        {
          "internalType": "address",
          "name": "_user",
          "type": "address"
        }
      ],
      "name": "getNetBalance",
      "outputs": [
        {
          "internalType": "string",
          "name": "status",
          "type": "string"
        },
        {
          "internalType": "uint256",
          "name": "absAmount",
          "type": "uint256"
        }
      ],
      "stateMutability": "view",
      "type": "function",
      "constant": true
    }
  ],
  "bytecode": "0x608060405234801561001057600080fd5b50612305806100206000396000f3fe6080604052600436106100dd5760003560e01c80638f23b3261161007f578063af4afe0a11610059578063af4afe0a146102da578063b0a794591461031b578063c477ecab14610358578063dc2ddcae14610395576100dd565b80638f23b32614610254578063962d19381461027f57806396324bd41461029b576100dd565b806340dad46b116100bb57806340dad46b14610185578063500b136f146101c357806352e7df5d1461020057806374d0a6761461022b576100dd565b80631f320331146100e25780632f0e0bdf1461011f5780633086443d1461015c575b600080fd5b3480156100ee57600080fd5b50610109600480360381019061010491906112ff565b6103d2565b6040516101169190611358565b60405180910390f35b34801561012b57600080fd5b50610146600480360381019061014191906112ff565b6103f7565b604051610153919061138e565b60405180910390f35b34801561016857600080fd5b50610183600480360381019061017e91906115b7565b610454565b005b34801561019157600080fd5b506101ac60048036038101906101a791906112ff565b610798565b6040516101ba9291906116e4565b60405180910390f35b3480156101cf57600080fd5b506101ea60048036038101906101e59190611714565b6108d5565b6040516101f791906117ff565b60405180910390f35b34801561020c57600080fd5b50610215610943565b6040516102229190611821565b60405180910390f35b34801561023757600080fd5b50610252600480360381019061024d91906112ff565b610949565b005b34801561026057600080fd5b50610269610b10565b6040516102769190611821565b60405180910390f35b6102996004803603810190610294919061187a565b610b16565b005b3480156102a757600080fd5b506102c260048036038101906102bd9190611714565b610db6565b6040516102d1939291906118c9565b60405180910390f35b3480156102e657600080fd5b5061030160048036038101906102fc9190611714565b610e88565b604051610312959493929190611907565b60405180910390f35b34801561032757600080fd5b50610342600480360381019061033d91906112ff565b610f73565b60405161034f9190611358565b60405180910390f35b34801561036457600080fd5b5061037f600480360381019061037a9190611714565b610fce565b60405161038c9190611a1f565b60405180910390f35b3480156103a157600080fd5b506103bc60048036038101906103b79190611a41565b611072565b6040516103c99190611821565b60405180910390f35b6004602052816000526040600020602052806000526040600020600091509150505481565b6000806004600085815260200190815260200160002060008473ffffffffffffffffffffffffffffffffffffffff1673ffffffffffffffffffffffffffffffffffffffff1681526020019081526020016000205414905092915050565b60008211610497576040517f08c379a000000000000000000000000000000000000000000000000000000000815260040161048e90611ad6565b60405180910390fd5b60008151116104db576040517f08c379a00000000000000000000000000000000000000000000000000000000081526004016104d290611b42565b60405180910390fd5b600160008154809291906104ee90611b91565b9190505550600060036000600154815260200190815260200160002090506001548160000181905550838160010190816105289190611de5565b50828160020181905550338160030160006101000a81548173ffffffffffffffffffffffffffffffffffffffff021916908373ffffffffffffffffffffffffffffffffffffffff1602179055508181600401908051906020019061058d9291906111b0565b5060008160050160006101000a81548160ff02191690831515021790555060026000868152602001908152602001600020600401600154908060018154018082558091505060019003906000526020600020016000909190919091505560008251846105f99190611ee6565b905060005b8351811015610750573373ffffffffffffffffffffffffffffffffffffffff1684828151811061063157610630611f17565b5b602002602001015173ffffffffffffffffffffffffffffffffffffffff161461073d578160046000898152602001908152602001600020600086848151811061067d5761067c611f17565b5b602002602001015173ffffffffffffffffffffffffffffffffffffffff1673ffffffffffffffffffffffffffffffffffffffff16815260200190815260200160002060008282546106ce9190611f46565b92505081905550816004600089815260200190815260200160002060003373ffffffffffffffffffffffffffffffffffffffff1673ffffffffffffffffffffffffffffffffffffffff16815260200190815260200160002060008282546107359190611f89565b925050819055505b808061074890611b91565b9150506105fe565b507f8554d4a7658569a74133abedf43c48e41491964da8c9338552856d64dc6f7f036001548686336040516107889493929190611fcd565b60405180910390a1505050505050565b60606000806004600086815260200190815260200160002060008573ffffffffffffffffffffffffffffffffffffffff1673ffffffffffffffffffffffffffffffffffffffff168152602001908152602001600020549050600081131561083b57806040518060400160405280600c81526020017f596f7520617265206f77656400000000000000000000000000000000000000008152509092509250506108ce565b600081121561088f578061084e90612019565b6040518060400160405280600781526020017f596f75206f7765000000000000000000000000000000000000000000000000008152509092509250506108ce565b60006040518060400160405280600781526020017f536574746c6564000000000000000000000000000000000000000000000000008152509092509250505b9250929050565b60606002600083815260200190815260200160002060040180548060200260200160405190810160405280929190818152602001828054801561093757602002820191906000526020600020905b815481526020019060010190808311610923575b50505050509050919050565b60015481565b3373ffffffffffffffffffffffffffffffffffffffff166002600084815260200190815260200160002060020160009054906101000a900473ffffffffffffffffffffffffffffffffffffffff1673ffffffffffffffffffffffffffffffffffffffff16146109ed576040517f08c379a00000000000000000000000000000000000000000000000000000000081526004016109e4906120ad565b60405180910390fd5b600073ffffffffffffffffffffffffffffffffffffffff168173ffffffffffffffffffffffffffffffffffffffff1603610a5c576040517f08c379a0000000000000000000000000000000000000000000000000000000008152600401610a5390612119565b60405180910390fd5b60026000838152602001908152602001600020600301819080600181540180825580915050600190039060005260206000200160009091909190916101000a81548173ffffffffffffffffffffffffffffffffffffffff021916908373ffffffffffffffffffffffffffffffffffffffff1602179055507ff328ac0f8bcae00933fe87ba0aa2d0d505c1df94bc9c1aa05b8441c28b74032c8282604051610b04929190612139565b60405180910390a15050565b60005481565b60003411610b59576040517f08c379a0000000000000000000000000000000000000000000000000000000008152600401610b50906121ae565b60405180910390fd5b600073ffffffffffffffffffffffffffffffffffffffff168173ffffffffffffffffffffffffffffffffffffffff1603610bc8576040517f08c379a0000000000000000000000000000000000000000000000000000000008152600401610bbf9061221a565b60405180910390fd5b3373ffffffffffffffffffffffffffffffffffffffff168173ffffffffffffffffffffffffffffffffffffffff1603610c36576040517f08c379a0000000000000000000000000000000000000000000000000000000008152600401610c2d90612286565b60405180910390fd5b346004600084815260200190815260200160002060003373ffffffffffffffffffffffffffffffffffffffff1673ffffffffffffffffffffffffffffffffffffffff1681526020019081526020016000206000828254610c969190611f89565b92505081905550346004600084815260200190815260200160002060008373ffffffffffffffffffffffffffffffffffffffff1673ffffffffffffffffffffffffffffffffffffffff1681526020019081526020016000206000828254610cfd9190611f46565b925050819055508073ffffffffffffffffffffffffffffffffffffffff166108fc349081150290604051600060405180830381858888f19350505050158015610d4a573d6000803e3d6000fd5b508073ffffffffffffffffffffffffffffffffffffffff163373ffffffffffffffffffffffffffffffffffffffff167fb73414e83fe48d03a430abd012c3314bf45c74419cd1b4a7db8a774b3538ce538434604051610daa9291906122a6565b60405180910390a35050565b6002602052806000526040600020600091509050806000015490806001018054610ddf90611c08565b80601f0160208091040260200160405190810160405280929190818152602001828054610e0b90611c08565b8015610e585780601f10610e2d57610100808354040283529160200191610e58565b820191906000526020600020905b815481529060010190602001808311610e3b57829003601f168201915b5050505050908060020160009054906101000a900473ffffffffffffffffffffffffffffffffffffffff16905083565b6003602052806000526040600020600091509050806000015490806001018054610eb190611c08565b80601f0160208091040260200160405190810160405280929190818152602001828054610edd90611c08565b8015610f2a5780601f10610eff57610100808354040283529160200191610f2a565b820191906000526020600020905b815481529060010190602001808311610f0d57829003601f168201915b5050505050908060020154908060030160009054906101000a900473ffffffffffffffffffffffffffffffffffffffff16908060050160009054906101000a900460ff16905085565b60006004600084815260200190815260200160002060008373ffffffffffffffffffffffffffffffffffffffff1673ffffffffffffffffffffffffffffffffffffffff16815260200190815260200160002054905092915050565b60606002600083815260200190815260200160002060030180548060200260200160405190810160405280929190818152602001828054801561106657602002820191906000526020600020905b8160009054906101000a900473ffffffffffffffffffffffffffffffffffffffff1673ffffffffffffffffffffffffffffffffffffffff168152602001906001019080831161101c575b50505050509050919050565b600080600081548092919061108690611b91565b91905055506000600260008054815260200190815260200160002090506000548160000181905550828160010190816110bf9190611de5565b50338160020160006101000a81548173ffffffffffffffffffffffffffffffffffffffff021916908373ffffffffffffffffffffffffffffffffffffffff16021790555080600301339080600181540180825580915050600190039060005260206000200160009091909190916101000a81548173ffffffffffffffffffffffffffffffffffffffff021916908373ffffffffffffffffffffffffffffffffffffffff1602179055507f18c62fe73d1b8ec45d443cf56b0c4966349cbb70ab036ba3ebfb065932ad17b0600054843360405161119d939291906118c9565b60405180910390a1600054915050919050565b828054828255906000526020600020908101928215611229579160200282015b828111156112285782518260006101000a81548173ffffffffffffffffffffffffffffffffffffffff021916908373ffffffffffffffffffffffffffffffffffffffff160217905550916020019190600101906111d0565b5b509050611236919061123a565b5090565b5b8082111561125357600081600090555060010161123b565b5090565b6000604051905090565b600080fd5b600080fd5b6000819050919050565b61127e8161126b565b811461128957600080fd5b50565b60008135905061129b81611275565b92915050565b600073ffffffffffffffffffffffffffffffffffffffff82169050919050565b60006112cc826112a1565b9050919050565b6112dc816112c1565b81146112e757600080fd5b50565b6000813590506112f9816112d3565b92915050565b6000806040838503121561131657611315611261565b5b60006113248582860161128c565b9250506020611335858286016112ea565b9150509250929050565b6000819050919050565b6113528161133f565b82525050565b600060208201905061136d6000830184611349565b92915050565b60008115159050919050565b61138881611373565b82525050565b60006020820190506113a3600083018461137f565b92915050565b600080fd5b600080fd5b6000601f19601f8301169050919050565b7f4e487b7100000000000000000000000000000000000000000000000000000000600052604160045260246000fd5b6113fc826113b3565b810181811067ffffffffffffffff8211171561141b5761141a6113c4565b5b80604052505050565b600061142e611257565b905061143a82826113f3565b919050565b600067ffffffffffffffff82111561145a576114596113c4565b5b611463826113b3565b9050602081019050919050565b82818337600083830152505050565b600061149261148d8461143f565b611424565b9050828152602081018484840111156114ae576114ad6113ae565b5b6114b9848285611470565b509392505050565b600082601f8301126114d6576114d56113a9565b5b81356114e684826020860161147f565b91505092915050565b600067ffffffffffffffff82111561150a576115096113c4565b5b602082029050602081019050919050565b600080fd5b600061153361152e846114ef565b611424565b905080838252602082019050602084028301858111156115565761155561151b565b5b835b8181101561157f578061156b88826112ea565b845260208401935050602081019050611558565b5050509392505050565b600082601f83011261159e5761159d6113a9565b5b81356115ae848260208601611520565b91505092915050565b600080600080608085870312156115d1576115d0611261565b5b60006115df8782880161128c565b945050602085013567ffffffffffffffff811115611600576115ff611266565b5b61160c878288016114c1565b935050604061161d8782880161128c565b925050606085013567ffffffffffffffff81111561163e5761163d611266565b5b61164a87828801611589565b91505092959194509250565b600081519050919050565b600082825260208201905092915050565b60005b83811015611690578082015181840152602081019050611675565b60008484015250505050565b60006116a782611656565b6116b18185611661565b93506116c1818560208601611672565b6116ca816113b3565b840191505092915050565b6116de8161126b565b82525050565b600060408201905081810360008301526116fe818561169c565b905061170d60208301846116d5565b9392505050565b60006020828403121561172a57611729611261565b5b60006117388482850161128c565b91505092915050565b600081519050919050565b600082825260208201905092915050565b6000819050602082019050919050565b6117768161126b565b82525050565b6000611788838361176d565b60208301905092915050565b6000602082019050919050565b60006117ac82611741565b6117b6818561174c565b93506117c18361175d565b8060005b838110156117f25781516117d9888261177c565b97506117e483611794565b9250506001810190506117c5565b5085935050505092915050565b6000602082019050818103600083015261181981846117a1565b905092915050565b600060208201905061183660008301846116d5565b92915050565b6000611847826112a1565b9050919050565b6118578161183c565b811461186257600080fd5b50565b6000813590506118748161184e565b92915050565b6000806040838503121561189157611890611261565b5b600061189f8582860161128c565b92505060206118b085828601611865565b9150509250929050565b6118c3816112c1565b82525050565b60006060820190506118de60008301866116d5565b81810360208301526118f0818561169c565b90506118ff60408301846118ba565b949350505050565b600060a08201905061191c60008301886116d5565b818103602083015261192e818761169c565b905061193d60408301866116d5565b61194a60608301856118ba565b611957608083018461137f565b9695505050505050565b600081519050919050565b600082825260208201905092915050565b6000819050602082019050919050565b611996816112c1565b82525050565b60006119a8838361198d565b60208301905092915050565b6000602082019050919050565b60006119cc82611961565b6119d6818561196c565b93506119e18361197d565b8060005b83811015611a125781516119f9888261199c565b9750611a04836119b4565b9250506001810190506119e5565b5085935050505092915050565b60006020820190508181036000830152611a3981846119c1565b905092915050565b600060208284031215611a5757611a56611261565b5b600082013567ffffffffffffffff811115611a7557611a74611266565b5b611a81848285016114c1565b91505092915050565b7f416d6f756e74206d7573742062652067726561746572207468616e2030000000600082015250565b6000611ac0601d83611661565b9150611acb82611a8a565b602082019050919050565b60006020820190508181036000830152611aef81611ab3565b9050919050565b7f4e656564206174206c65617374206f6e65207061727469636970616e74000000600082015250565b6000611b2c601d83611661565b9150611b3782611af6565b602082019050919050565b60006020820190508181036000830152611b5b81611b1f565b9050919050565b7f4e487b7100000000000000000000000000000000000000000000000000000000600052601160045260246000fd5b6000611b9c8261126b565b91507fffffffffffffffffffffffffffffffffffffffffffffffffffffffffffffffff8203611bce57611bcd611b62565b5b600182019050919050565b7f4e487b7100000000000000000000000000000000000000000000000000000000600052602260045260246000fd5b60006002820490506001821680611c2057607f821691505b602082108103611c3357611c32611bd9565b5b50919050565b60008190508160005260206000209050919050565b60006020601f8301049050919050565b600082821b905092915050565b600060088302611c9b7fffffffffffffffffffffffffffffffffffffffffffffffffffffffffffffffff82611c5e565b611ca58683611c5e565b95508019841693508086168417925050509392505050565b6000819050919050565b6000611ce2611cdd611cd88461126b565b611cbd565b61126b565b9050919050565b6000819050919050565b611cfc83611cc7565b611d10611d0882611ce9565b848454611c6b565b825550505050565b600090565b611d25611d18565b611d30818484611cf3565b505050565b5b81811015611d5457611d49600082611d1d565b600181019050611d36565b5050565b601f821115611d9957611d6a81611c39565b611d7384611c4e565b81016020851015611d82578190505b611d96611d8e85611c4e565b830182611d35565b50505b505050565b600082821c905092915050565b6000611dbc60001984600802611d9e565b1980831691505092915050565b6000611dd58383611dab565b9150826002028217905092915050565b611dee82611656565b67ffffffffffffffff811115611e0757611e066113c4565b5b611e118254611c08565b611e1c828285611d58565b600060209050601f831160018114611e4f5760008415611e3d578287015190505b611e478582611dc9565b865550611eaf565b601f198416611e5d86611c39565b60005b82811015611e8557848901518255600182019150602085019450602081019050611e60565b86831015611ea25784890151611e9e601f891682611dab565b8355505b6001600288020188555050505b505050505050565b7f4e487b7100000000000000000000000000000000000000000000000000000000600052601260045260246000fd5b6000611ef18261126b565b9150611efc8361126b565b925082611f0c57611f0b611eb7565b5b828204905092915050565b7f4e487b7100000000000000000000000000000000000000000000000000000000600052603260045260246000fd5b6000611f518261133f565b9150611f5c8361133f565b9250828203905081811260008412168282136000851215161715611f8357611f82611b62565b5b92915050565b6000611f948261133f565b9150611f9f8361133f565b925082820190508281121560008312168382126000841215161715611fc757611fc6611b62565b5b92915050565b6000608082019050611fe260008301876116d5565b8181036020830152611ff4818661169c565b905061200360408301856116d5565b61201060608301846118ba565b95945050505050565b60006120248261133f565b91507f8000000000000000000000000000000000000000000000000000000000000000820361205657612055611b62565b5b816000039050919050565b7f4f6e6c792061646d696e2063616e20616464206d656d62657273000000000000600082015250565b6000612097601a83611661565b91506120a282612061565b602082019050919050565b600060208201905081810360008301526120c68161208a565b9050919050565b7f496e76616c696420616464726573730000000000000000000000000000000000600082015250565b6000612103600f83611661565b915061210e826120cd565b602082019050919050565b60006020820190508181036000830152612132816120f6565b9050919050565b600060408201905061214e60008301856116d5565b61215b60208301846118ba565b9392505050565b7f53656e642045544820746f20736574746c650000000000000000000000000000600082015250565b6000612198601283611661565b91506121a382612162565b602082019050919050565b600060208201905081810360008301526121c78161218b565b9050919050565b7f496e76616c696420726563656976657200000000000000000000000000000000600082015250565b6000612204601083611661565b915061220f826121ce565b602082019050919050565b60006020820190508181036000830152612233816121f7565b9050919050565b7f43616e6e6f7420736574746c65207769746820796f757273656c660000000000600082015250565b6000612270601b83611661565b915061227b8261223a565b602082019050919050565b6000602082019050818103600083015261229f81612263565b9050919050565b60006040820190506122bb60008301856116d5565b6122c860208301846116d5565b939250505056fea2646970667358221220961f7b80e845e9df909ee895f5d12f0d3e06b6588631f19dbaa8a3bdda64a13664736f6c63430008130033",
  "immutableReferences": {},
  "source": "// SPDX-License-Identifier: MIT\r\npragma solidity ^0.8.19;\r\n\r\nimport \"./ExpenseManager.sol\";\r\n\r\ncontract SettlementManager is ExpenseManager {\r\n\r\n    event SettlementMade(\r\n        uint256 groupId,\r\n        address indexed payer,\r\n        address indexed receiver,\r\n        uint256 amount\r\n    );\r\n\r\n    event BalanceCleared(uint256 groupId, address user);\r\n\r\n    function settle(uint256 _groupId, address payable _receiver) public payable {\r\n        require(msg.value > 0, \"Send ETH to settle\");\r\n        require(_receiver != address(0), \"Invalid receiver\");\r\n        require(_receiver != msg.sender, \"Cannot settle with yourself\");\r\n\r\n        balances[_groupId][msg.sender] += int256(msg.value);\r\n        balances[_groupId][_receiver] -= int256(msg.value);\r\n\r\n        _receiver.transfer(msg.value);\r\n\r\n        emit SettlementMade(_groupId, msg.sender, _receiver, msg.value);\r\n    }\r\n\r\n    function isSettled(uint256 _groupId, address _user) public view returns (bool) {\r\n        return balances[_groupId][_user] == 0;\r\n    }\r\n\r\n    function getNetBalance(uint256 _groupId, address _user)\r\n        public\r\n        view\r\n        returns (string memory status, uint256 absAmount)\r\n    {\r\n        int256 bal = balances[_groupId][_user];\r\n        if (bal > 0) {\r\n            return (\"You are owed\", uint256(bal));\r\n        } else if (bal < 0) {\r\n            return (\"You owe\", uint256(-bal));\r\n        } else {\r\n            return (\"Settled\", 0);\r\n        }\r\n    }\r\n}\r\n",
  "sourcePath": "C:\\Users\\adity\\Desktop\\Code\\CBD_EXP\\contracts\\SettlementManager.sol",
  "compiler": {
    "name": "solc",
    "version": "0.8.19+commit.7dd6d404.Emscripten.clang"
  },
  "schemaVersion": "3.4.16",
  "updatedAt": "2026-04-06T09:25:51.728Z",
  "networkType": "ethereum",
  "devdoc": {
    "kind": "dev",
    "methods": {},
    "version": 1
  },
  "userdoc": {
    "kind": "user",
    "methods": {},
    "version": 1
  }
}