{
  "contractName": "SettlementManager",
  "abi": [
    {
      "anonymous": false,
      "inputs": [
        {
          "indexed": true,
          "internalType": "uint256",
          "name": "expenseId",
          "type": "uint256"
        },
        {
          "indexed": false,
          "internalType": "string",
          "name": "description",
          "type": "string"
        },
        {
          "indexed": false,
          "internalType": "uint256",
          "name": "amount",
          "type": "uint256"
        },
        {
          "indexed": true,
          "internalType": "address",
          "name": "payer",
          "type": "address"
        },
        {
          "indexed": false,
          "internalType": "address[]",
          "name": "participants",
          "type": "address[]"
        },
        {
          "indexed": false,
          "internalType": "uint8",
          "name": "category",
          "type": "uint8"
        }
      ],
      "name": "ExpenseAdded",
      "type": "event"
    },
    {
      "anonymous": false,
      "inputs": [
        {
          "indexed": true,
          "internalType": "uint256",
          "name": "groupId",
          "type": "uint256"
        },
        {
          "indexed": false,
          "internalType": "string",
          "name": "name",
          "type": "string"
        },
        {
          "indexed": true,
          "internalType": "address",
          "name": "admin",
          "type": "address"
        }
      ],
      "name": "GroupCreated",
      "type": "event"
    },
    {
      "anonymous": false,
      "inputs": [
        {
          "indexed": true,
          "internalType": "uint256",
          "name": "groupId",
          "type": "uint256"
        },
        {
          "indexed": true,
          "internalType": "address",
          "name": "member",
          "type": "address"
        }
      ],
      "name": "MemberAdded",
      "type": "event"
    },
    {
      "anonymous": false,
      "inputs": [
        {
          "indexed": true,
          "internalType": "uint256",
          "name": "groupId",
          "type": "uint256"
        },
        {
          "indexed": true,
          "internalType": "address",
          "name": "payer",
          "type": "address"
        },
        {
          "indexed": true,
          "internalType": "address",
          "name": "receiver",
          "type": "address"
        },
        {
          "indexed": false,
          "internalType": "uint256",
          "name": "amount",
          "type": "uint256"
        }
      ],
      "name": "SettlementMade",
      "type": "event"
    },
    {
      "inputs": [
        {
          "internalType": "uint256",
          "name": "_groupId",
          "type": "uint256"
        },
        {
          "internalType": "string",
          "name": "_description",
          "type": "string"
        },
        {
          "internalType": "uint256",
          "name": "_amount",
          "type": "uint256"
        },
        {
          "internalType": "address[]",
          "name": "_participants",
          "type": "address[]"
        },
        {
          "internalType": "uint8",
          "name": "_category",
          "type": "uint8"
        }
      ],
      "name": "addExpense",
      "outputs": [],
      "stateMutability": "nonpayable",
      "type": "function"
    },
    {
      "inputs": [
        {
          "internalType": "uint256",
          "name": "_groupId",
          "type": "uint256"
        },
        {
          "internalType": "address",
          "name": "_member",
          "type": "address"
        }
      ],
      "name": "addMember",
      "outputs": [],
      "stateMutability": "nonpayable",
      "type": "function"
    },
    {
      "inputs": [
        {
          "internalType": "uint256",
          "name": "",
          "type": "uint256"
        },
        {
          "internalType": "address",
          "name": "",
          "type": "address"
        }
      ],
      "name": "balances",
      "outputs": [
        {
          "internalType": "int256",
          "name": "",
          "type": "int256"
        }
      ],
      "stateMutability": "view",
      "type": "function",
      "constant": true
    },
    {
      "inputs": [
        {
          "internalType": "string",
          "name": "_name",
          "type": "string"
        }
      ],
      "name": "createGroup",
      "outputs": [
        {
          "internalType": "uint256",
          "name": "",
          "type": "uint256"
        }
      ],
      "stateMutability": "nonpayable",
      "type": "function"
    },
    {
      "inputs": [],
      "name": "expenseCount",
      "outputs": [
        {
          "internalType": "uint256",
          "name": "",
          "type": "uint256"
        }
      ],
      "stateMutability": "view",
      "type": "function",
      "constant": true
    },
    {
      "inputs": [
        {
          "internalType": "uint256",
          "name": "",
          "type": "uint256"
        }
      ],
      "name": "expenses",
      "outputs": [
        {
          "internalType": "uint256",
          "name": "id",
          "type": "uint256"
        },
        {
          "internalType": "string",
          "name": "description",
          "type": "string"
        },
        {
          "internalType": "uint256",
          "name": "amount",
          "type": "uint256"
        },
        {
          "internalType": "address",
          "name": "payer",
          "type": "address"
        },
        {
          "internalType": "bool",
          "name": "settled",
          "type": "bool"
        },
        {
          "internalType": "uint8",
          "name": "category",
          "type": "uint8"
        }
      ],
      "stateMutability": "view",
      "type": "function",
      "constant": true
    },
    {
      "inputs": [
        {
          "internalType": "uint256",
          "name": "_groupId",
          "type": "uint256"
        },
        {
          "internalType": "address",
          "name": "_user",
          "type": "address"
        }
      ],
      "name": "getBalance",
      "outputs": [
        {
          "internalType": "int256",
          "name": "",
          "type": "int256"
        }
      ],
      "stateMutability": "view",
      "type": "function",
      "constant": true
    },
    {
      "inputs": [
        {
          "internalType": "uint256",
          "name": "_groupId",
          "type": "uint256"
        }
      ],
      "name": "getGroupExpenses",
      "outputs": [
        {
          "internalType": "uint256[]",
          "name": "",
          "type": "uint256[]"
        }
      ],
      "stateMutability": "view",
      "type": "function",
      "constant": true
    },
    {
      "inputs": [
        {
          "internalType": "uint256",
          "name": "_groupId",
          "type": "uint256"
        }
      ],
      "name": "getMembers",
      "outputs": [
        {
          "internalType": "address[]",
          "name": "",
          "type": "address[]"
        }
      ],
      "stateMutability": "view",
      "type": "function",
      "constant": true
    },
    {
      "inputs": [],
      "name": "groupCount",
      "outputs": [
        {
          "internalType": "uint256",
          "name": "",
          "type": "uint256"
        }
      ],
      "stateMutability": "view",
      "type": "function",
      "constant": true
    },
    {
      "inputs": [
        {
          "internalType": "uint256",
          "name": "",
          "type": "uint256"
        }
      ],
      "name": "groups",
      "outputs": [
        {
          "internalType": "uint256",
          "name": "id",
          "type": "uint256"
        },
        {
          "internalType": "string",
          "name": "name",
          "type": "string"
        },
        {
          "internalType": "address",
          "name": "admin",
          "type": "address"
        }
      ],
      "stateMutability": "view",
      "type": "function",
      "constant": true
    },
    {
      "inputs": [
        {
          "internalType": "uint256",
          "name": "_groupId",
          "type": "uint256"
        },
        {
          "internalType": "address payable",
          "name": "_receiver",
          "type": "address"
        }
      ],
      "name": "settle",
      "outputs": [],
      "stateMutability": "payable",
      "type": "function",
      "payable": true
    },
    {
      "inputs": [
        {
          "internalType": "uint256",
          "name": "_groupId",
          "type": "uint256"
        },
        {
          "internalType": "address",
          "name": "_user",
          "type": "address"
        }
      ],
      "name": "isSettled",
      "outputs": [
        {
          "internalType": "bool",
          "name": "",
          "type": "bool"
        }
      ],
      "stateMutability": "view",
      "type": "function",
      "constant": true
    },
    {
      "inputs": [
        {
          "internalType": "uint256",
          "name": "_groupId",
          "type": "uint256"
        },
        {
          "internalType": "address",
          "name": "_user",
          "type": "address"
        }
      ],
      "name": "getNetBalance",
      "outputs": [
        {
          "internalType": "string",
          "name": "status",
          "type": "string"
        },
        {
          "internalType": "uint256",
          "name": "absAmount",
          "type": "uint256"
        }
      ],
      "stateMutability": "view",
      "type": "function",
      "constant": true
    },
    {
      "inputs": [
        {
          "internalType": "uint256",
          "name": "_groupId",
          "type": "uint256"
        }
      ],
      "name": "getAllBalances",
      "outputs": [
        {
          "internalType": "address[]",
          "name": "members",
          "type": "address[]"
        },
        {
          "internalType": "int256[]",
          "name": "memberBalances",
          "type": "int256[]"
        }
      ],
      "stateMutability": "view",
      "type": "function",
      "constant": true
    }
  ],
  "bytecode": "0x608080604052346100165761136d908161001c8239f35b600080fdfe608080604052600436101561001357600080fd5b60003560e01c9081631f32033114610f3d575080632f0e0bdf14610ef457806340dad46b14610eaf578063500b136f14610e0657806352e7df5d14610de857806374d0a67614610ce45780638f23b32614610cc6578063962d193814610a0757806396324bd4146109a4578063af4afe0a1461091e578063b0a79459146108d6578063c477ecab14610849578063dc2ddcae1461063e578063f4ecdcee146104f25763f643729c146100c457600080fd5b346102f75760a03660031901126102f75767ffffffffffffffff6024358181116102f7576100f6903690600401611131565b919081606435116102f7573660236064350112156102f7578160643560040135116102f7573660246064356004013560051b6064350101116102f75760ff60843516608435036102f757604435156104ad5760643560040135156104685761015f60015461115f565b91826001558260005260036020526040600020908382558411610392576101896001820154610fd6565b601f8111610421575b5060009084601f81116001146103b3576003926000916103a8575b508560011b9060001987851b1c19161760018201555b604435600282015501805460ff60a81b60843560a81b169061ffff60a01b1933169069ffffffffffffffffffff60b01b1617179055600435600052600260205260046040600020018054600160401b8110156103925761022891600182018155611184565b81549060031b9084821b91600019901b191617905560005b6064356004013581106102fc5750610266602091604051946080865260808601916111ed565b604435828501528381036040850152606435600401358152019160246064350160005b6064356004013581106102cd5750507fe2f86de301cca40716e8f75d1727dfecb6ae87852b30e3f5a5b7398ea840b9379060ff6084351660608201528033940390a3005b909384356001600160a01b03811691908290036102f7576020816001938293520195019101610289565b600080fd5b6024600582901b6064350101356001600160a01b03811691908290036102f75760019133810361032e575b5001610240565b6004356000526004602052604060002090600052602052604060002060643560040135604435049061036182825461120e565b9055600435600052600460205260406000203360005260205261038a6040600020918254611227565b905538610327565b634e487b7160e01b600052604160045260246000fd5b9050830135386101ad565b506001810160005260206000206000925b601f1987168410610409576003935086601f198116106103f1575b5050600185811b0160018201556101c3565b84013560001987851b60f8161c1916905538806103df565b848101358255602093840193600190920191016103c4565b600182016000526020600020601f860160051c810160208710610461575b601f830160051c82018110610455575050610192565b6000815560010161043f565b508061043f565b60405162461bcd60e51b815260206004820152601d60248201527f4e656564206174206c65617374206f6e65207061727469636970616e740000006044820152606490fd5b60405162461bcd60e51b815260206004820152601d60248201527f416d6f756e74206d7573742062652067726561746572207468616e20300000006044820152606490fd5b346102f7576020806003193601126102f75760043580600052600282526003604060002001906040519182848254918281520191600052846000209060005b818110610621575050508261054791038361102c565b8151926105538461130b565b93610561604051958661102c565b80855261056d8161130b565b8583019390601f190136853760005b8281106105d85750505061059f93816040519586956040875260408701906110f4565b9185830382870152519182815201929160005b8281106105c157505050500390f35b8351855286955093810193928101926001016105b2565b6000828152600485526040902095969495600191906001600160a01b036105ff838b611323565b511660005285526040600020546106168288611323565b52019594939561057c565b82546001600160a01b031684529286019260019283019201610531565b346102f7576020806003193601126102f75767ffffffffffffffff6004358181116102f757610671903690600401611131565b909161067e60005461115f565b928360005583600052600285526040600020848155600192838201908511610392578486946106ad8354610fd6565b601f81116107ee575b506000601f831160011461075a5792826107309361074496937f18c62fe73d1b8ec45d443cf56b0c4966349cbb70ab036ba3ebfb065932ad17b0989660009361074f575b501b906000198a60031b1c19161790555b60028101336bffffffffffffffffffffffff60a01b82541617905560033391016111b2565b6040519182918883523396898401916111ed565b0390a3604051908152f35b87013592508d6106fa565b60008481528a81209293508890601f198216905b8c8282106107d4575050927f18c62fe73d1b8ec45d443cf56b0c4966349cbb70ab036ba3ebfb065932ad17b097959261073095926107449895106107ba575b505088811b01905561070b565b86013560001960038c901b60f8161c191690558b806107ad565b848a013586558c9a5094860194938401938b93500161076e565b915091809394955060005287600020601f870160051c81019189881061083f575b91889695949391601f89940160051c01905b81811061082e57506106b6565b600081558997508893508201610821565b909150819061080f565b346102f7576020806003193601126102f75760043560005260028152600360406000200190604051808383829554938481520190600052836000209260005b858282106108b75750505061089f9250038361102c565b6108b36040519282849384528301906110f4565b0390f35b85546001600160a01b0316845260019586019588955093019201610888565b346102f75760403660031901126102f7576108ef610f80565b600435600052600460205260406000209060018060a01b03166000526020526020604060002054604051908152f35b346102f75760203660031901126102f75760043560005260036020526040600020805461094d6001830161104e565b9160ff60036002830154920154610976604051958695865260c0602087015260c0860190610f96565b92604085015260018060a01b0381166060850152818160a01c161515608085015260a81c1660a08301520390f35b346102f75760203660031901126102f7576004356000526002602052604060002080546109d36001830161104e565b91600260018060a01b03910154166109fd6040519384938452606060208501526060840190610f96565b9060408301520390f35b60403660031901126102f7576001600160a01b036024803591821691600435908390036102f7573415610c8d578215610c5657338314610c125780600052602091600483526040600020336000528352604060002054826000526004845260406000208560005284526040600020546000821215610bc35760001215610b6b57610a9090611243565b3411610b285750806000526004825260406000203360005282526040600020610aba348254611227565b9055806000526004825260406000208360005282526040600020610adf34825461120e565b90556000808080348782f115610b1c577fb73414e83fe48d03a430abd012c3314bf45c74419cd1b4a7db8a774b3538ce53604051923484523393a4005b6040513d6000823e3d90fd5b8260196064926040519262461bcd60e51b845260048401528201527f5061796d656e74206578636565647320796f75722064656274000000000000006044820152fd5b60405162461bcd60e51b815260048101859052602b818401527f5265636569766572206973206e6f74206f77656420616e797468696e6720696e60448201526a020746869732067726f75760ac1b6064820152608490fd5b608485846040519162461bcd60e51b83526004830152808201527f596f7520646f6e2774206f776520616e797468696e6720696e207468697320676044820152630726f75760e41b6064820152fd5b60405162461bcd60e51b815260206004820152601b818401527f43616e6e6f7420736574746c65207769746820796f757273656c6600000000006044820152606490fd5b60405162461bcd60e51b8152602060048201526010818401526f24b73b30b634b2103932b1b2b4bb32b960811b6044820152606490fd5b60405162461bcd60e51b8152602060048201526012818401527153656e642045544820746f20736574746c6560701b6044820152606490fd5b346102f75760003660031901126102f7576020600054604051908152f35b346102f75760403660031901126102f757600435610d00610f80565b9080600052600260205260018060a01b0380600260406000200154163303610da3578216918215610d6c57610d459082600052600260205260036040600020016111b2565b7ff328ac0f8bcae00933fe87ba0aa2d0d505c1df94bc9c1aa05b8441c28b74032c600080a3005b60405162461bcd60e51b815260206004820152600f60248201526e496e76616c6964206164647265737360881b6044820152606490fd5b60405162461bcd60e51b815260206004820152601a60248201527f4f6e6c792061646d696e2063616e20616464206d656d626572730000000000006044820152606490fd5b346102f75760003660031901126102f7576020600154604051908152f35b346102f7576020806003193601126102f75760043560005260028152600460406000200160405190818382549182815201908192600052846000209060005b86828210610e9b578686610e5b8288038361102c565b604051928392818401908285525180915260408401929160005b828110610e8457505050500390f35b835185528695509381019392810192600101610e75565b835485529093019260019283019201610e45565b346102f75760403660031901126102f757610eea610ed6610ece610f80565b600435611254565b604051928392604084526040840190610f96565b9060208301520390f35b346102f75760403660031901126102f757610f0d610f80565b600435600052600460205260406000209060018060a01b0316600052602052602060406000205415604051908152f35b346102f75760403660031901126102f757602090610f59610f80565b6004356000526004835260406000209060018060a01b031660005282526040600020548152f35b602435906001600160a01b03821682036102f757565b919082519283825260005b848110610fc2575050826000602080949584010152601f8019910116010190565b602081830181015184830182015201610fa1565b90600182811c92168015611006575b6020831014610ff057565b634e487b7160e01b600052602260045260246000fd5b91607f1691610fe5565b6040810190811067ffffffffffffffff82111761039257604052565b90601f8019910116810190811067ffffffffffffffff82111761039257604052565b906040519182600082549261106284610fd6565b9081845260019485811690816000146110d1575060011461108e575b505061108c9250038361102c565b565b9093915060005260209081600020936000915b8183106110b957505061108c9350820101388061107e565b855488840185015294850194879450918301916110a1565b91505061108c94506020925060ff191682840152151560051b820101388061107e565b90815180825260208080930193019160005b828110611114575050505090565b83516001600160a01b031685529381019392810192600101611106565b9181601f840112156102f75782359167ffffffffffffffff83116102f757602083818601950101116102f757565b600019811461116e5760010190565b634e487b7160e01b600052601160045260246000fd5b805482101561119c5760005260206000200190600090565b634e487b7160e01b600052603260045260246000fd5b8054600160401b811015610392576111cf91600182018155611184565b819291549060031b9160018060a01b03809116831b921b1916179055565b908060209392818452848401376000828201840152601f01601f1916010190565b8181039291600013801582851316918412161761116e57565b9190916000838201938412911290801582169115161761116e57565b600160ff1b811461116e5760000390565b60009081526004602090815260408083206001600160a01b039094168352929052908120549190808313156112ad575060405161129081611010565b600c81526b165bdd48185c99481bddd95960a21b60208201529190565b91828112156112e6576112c1919250611243565b906040516112ce81611010565b6007815266596f75206f776560c81b60208201529190565b506040516112f381611010565b600781526614d95d1d1b195960ca1b60208201529190565b67ffffffffffffffff81116103925760051b60200190565b805182101561119c5760209160051b01019056fea26469706673582212206facd7b701e747c2efd5937f040e3d187e42848833c99fd7ef7f9e5b90107d2464736f6c63430008130033",
  "immutableReferences": {},
  "source": "// SPDX-License-Identifier: MIT\npragma solidity ^0.8.19;\n\nimport \"./ExpenseManager.sol\";\n\ncontract SettlementManager is ExpenseManager {\n\n    event SettlementMade(\n        uint256 indexed groupId,\n        address indexed payer,\n        address indexed receiver,\n        uint256 amount\n    );\n\n    // Validate sender owes, receiver is owed, amount doesn't exceed debt\n    function settle(uint256 _groupId, address payable _receiver) external payable {\n        require(msg.value > 0, \"Send ETH to settle\");\n        require(_receiver != address(0), \"Invalid receiver\");\n        require(_receiver != msg.sender, \"Cannot settle with yourself\");\n\n        int256 senderBal = balances[_groupId][msg.sender];\n        int256 receiverBal = balances[_groupId][_receiver];\n\n        require(senderBal < 0, \"You don't owe anything in this group\");\n        require(receiverBal > 0, \"Receiver is not owed anything in this group\");\n\n        // msg.value must not exceed sender's actual debt\n        uint256 debt = uint256(-senderBal);\n        require(msg.value <= debt, \"Payment exceeds your debt\");\n\n        balances[_groupId][msg.sender] += int256(msg.value);\n        balances[_groupId][_receiver] -= int256(msg.value);\n\n        _receiver.transfer(msg.value);\n\n        emit SettlementMade(_groupId, msg.sender, _receiver, msg.value);\n    }\n\n    function isSettled(uint256 _groupId, address _user) external view returns (bool) {\n        return balances[_groupId][_user] == 0;\n    }\n\n    function getNetBalance(uint256 _groupId, address _user)\n        external\n        view\n        returns (string memory status, uint256 absAmount)\n    {\n        int256 bal = balances[_groupId][_user];\n        if (bal > 0) {\n            return (\"You are owed\", uint256(bal));\n        } else if (bal < 0) {\n            return (\"You owe\", uint256(-bal));\n        } else {\n            return (\"Settled\", 0);\n        }\n    }\n\n    // Returns all balances for all members in a group — used by frontend for debt graph\n    function getAllBalances(uint256 _groupId)\n        external\n        view\n        returns (address[] memory members, int256[] memory memberBalances)\n    {\n        address[] memory _members = groups[_groupId].members;\n        uint256 len = _members.length;\n        int256[] memory _balances = new int256[](len);\n        for (uint256 i = 0; i < len;) {\n            _balances[i] = balances[_groupId][_members[i]];\n            unchecked { ++i; }\n        }\n        return (_members, _balances);\n    }\n}\n",
  "sourcePath": "/Users/apple/Documents/Projects/chain_split-cbd/contracts/SettlementManager.sol",
  "compiler": {
    "name": "solc",
    "version": "0.8.19+commit.7dd6d404.Emscripten.clang"
  },
  "schemaVersion": "3.4.16",
  "updatedAt": "2026-04-21T08:12:16.623Z",
  "networkType": "ethereum",
  "devdoc": {
    "kind": "dev",
    "methods": {},
    "version": 1
  },
  "userdoc": {
    "kind": "user",
    "methods": {},
    "version": 1
  }
}